Component: ARM Compiler 5.06 update 5 (build 528) Tool: armlink [4d35e2]

==============================================================================

Section Cross References

    startup_stm32f103x6.o(STACK) refers (Special) to heapauxi.o(.text) for __use_two_region_memory
    startup_stm32f103x6.o(HEAP) refers (Special) to heapauxi.o(.text) for __use_two_region_memory
    startup_stm32f103x6.o(RESET) refers (Special) to heapauxi.o(.text) for __use_two_region_memory
    startup_stm32f103x6.o(RESET) refers to startup_stm32f103x6.o(STACK) for __initial_sp
    startup_stm32f103x6.o(RESET) refers to startup_stm32f103x6.o(.text) for Reset_Handler
    startup_stm32f103x6.o(RESET) refers to stm32f1xx_it.o(i.NMI_Handler) for NMI_Handler
    startup_stm32f103x6.o(RESET) refers to stm32f1xx_it.o(i.HardFault_Handler) for HardFault_Handler
    startup_stm32f103x6.o(RESET) refers to stm32f1xx_it.o(i.MemManage_Handler) for MemManage_Handler
    startup_stm32f103x6.o(RESET) refers to stm32f1xx_it.o(i.BusFault_Handler) for BusFault_Handler
    startup_stm32f103x6.o(RESET) refers to stm32f1xx_it.o(i.UsageFault_Handler) for UsageFault_Handler
    startup_stm32f103x6.o(RESET) refers to port.o(.emb_text) for SVC_Handler
    startup_stm32f103x6.o(RESET) refers to stm32f1xx_it.o(i.DebugMon_Handler) for DebugMon_Handler
    startup_stm32f103x6.o(RESET) refers to stm32f1xx_it.o(i.SysTick_Handler) for SysTick_Handler
    startup_stm32f103x6.o(RESET) refers to stm32f1xx_it.o(i.DMA1_Channel3_IRQHandler) for DMA1_Channel3_IRQHandler
    startup_stm32f103x6.o(RESET) refers to stm32f1xx_it.o(i.DMA1_Channel4_IRQHandler) for DMA1_Channel4_IRQHandler
    startup_stm32f103x6.o(RESET) refers to stm32f1xx_it.o(i.TIM1_UP_IRQHandler) for TIM1_UP_IRQHandler
    startup_stm32f103x6.o(RESET) refers to stm32f1xx_it.o(i.USART1_IRQHandler) for USART1_IRQHandler
    startup_stm32f103x6.o(.text) refers (Special) to heapauxi.o(.text) for __use_two_region_memory
==============================================================================

Removing Unused input sections from the image.

    Removing system_stm32f1xx.o(.rev16_text), (4 bytes).
    Removing system_stm32f1xx.o(.revsh_text), (4 bytes).
    Removing system_stm32f1xx.o(.rrx_text), (6 bytes).
    Removing system_stm32f1xx.o(i.SystemCoreClockUpdate), (164 bytes).
    Removing stm32f1xx_hal.o(.rev16_text), (4 bytes).
    Removing stm32f1xx_hal.o(.revsh_text), (4 bytes).
    Removing stm32f1xx_hal.o(.rrx_text), (6 bytes).
    Removing stm32f1xx_hal.o(i.HAL_DBGMCU_DisableDBGSleepMode), (20 bytes).
    Removing stm32f1xx_hal.o(i.HAL_DBGMCU_DisableDBGStandbyMode), (20 bytes).
    Removing stm32f1xx_hal.o(i.HAL_DBGMCU_DisableDBGStopMode), (20 bytes).
    Removing stm32f1xx_hal.o(i.HAL_DBGMCU_EnableDBGSleepMode), (20 bytes).
    Removing stm32f1xx_hal.o(i.HAL_DBGMCU_EnableDBGStandbyMode), (20 bytes).
    Removing stm32f1xx_hal.o(i.HAL_DBGMCU_EnableDBGStopMode), (20 bytes).
    Removing stm32f1xx_hal.o(i.HAL_DeInit), (36 bytes).
    Removing stm32f1xx_hal.o(i.HAL_GetDEVID), (16 bytes).
    Removing stm32f1xx_hal.o(i.HAL_GetHalVersion), (8 bytes).
    Removing stm32f1xx_hal.o(i.HAL_GetREVID), (28 bytes).
    Removing stm32f1xx_hal.o(i.HAL_InitTick), (36 bytes).
==============================================================================

Image Symbol Table

    Local Symbols

    Symbol Name                              Value     Ov Type        Size  Object(Section)

    ../clib/angel/boardlib.s                 0x00000000   Number         0  boardinit1.o ABSOLUTE
    ../clib/angel/boardlib.s                 0x00000000   Number         0  boardinit3.o ABSOLUTE
    ../clib/angel/boardlib.s                 0x00000000   Number         0  boardinit2.o ABSOLUTE
    ../clib/angel/boardlib.s                 0x00000000   Number         0  boardshut.o ABSOLUTE
    ../clib/angel/handlers.s                 0x00000000   Number         0  __scatter_copy.o ABSOLUTE
    ../clib/angel/handlers.s                 0x00000000   Number         0  __scatter_zi.o ABSOLUTE
    ../clib/angel/kernel.s                   0x00000000   Number         0  rtexit2.o ABSOLUTE
    ../clib/angel/kernel.s                   0x00000000   Number         0  __rtentry4.o ABSOLUTE
    ../clib/angel/kernel.s                   0x00000000   Number         0  __rtentry2.o ABSOLUTE
    ../clib/angel/kernel.s                   0x00000000   Number         0  __rtentry.o ABSOLUTE
    ../clib/angel/kernel.s                   0x00000000   Number         0  rtexit.o ABSOLUTE
    ../clib/angel/rt.s                       0x00000000   Number         0  rt_raise.o ABSOLUTE
    ../clib/angel/scatter.s                  0x00000000   Number         0  __scatter.o ABSOLUTE
    ../clib/angel/startup.s                  0x00000000   Number         0  __main.o ABSOLUTE
    ../clib/angel/sys.s                      0x00000000   Number         0  sys_stackheap_outer.o ABSOLUTE
    ../clib/angel/sys.s                      0x00000000   Number         0  use_no_semi.o ABSOLUTE
    ../clib/angel/sys.s                      0x00000000   Number         0  indicate_semi.o ABSOLUTE
    ../clib/angel/sys.s                      0x00000000   Number         0  libspace.o ABSOLUTE
    ../clib/angel/sysapp.c                   0x00000000   Number         0  sys_command.o ABSOLUTE
    ../clib/angel/sysapp.c                   0x00000000   Number         0  sys_wrch.o ABSOLUTE
    ../clib/angel/sysapp.c                   0x00000000   Number         0  sys_exit.o ABSOLUTE
    ../clib/armsys.c                         0x00000000   Number         0  argv_veneer.o ABSOLUTE
    ../clib/armsys.c                         0x00000000   Number         0  argv_veneer.o ABSOLUTE
    ../clib/armsys.c                         0x00000000   Number         0  no_argv.o ABSOLUTE
    ../clib/armsys.c                         0x00000000   Number         0  _get_argv_nomalloc.o ABSOLUTE
    ../clib/heapalloc.c                      0x00000000   Number         0  hrguard.o ABSOLUTE
    ../clib/heapaux.c                        0x00000000   Number         0  heapauxi.o ABSOLUTE
    ../clib/libinit.s                        0x00000000   Number         0  libshutdown.o ABSOLUTE
    ../clib/libinit.s                        0x00000000   Number         0  libinit.o ABSOLUTE
    ../clib/libinit.s                        0x00000000   Number         0  libinit2.o ABSOLUTE
    ../clib/libinit.s                        0x00000000   Number         0  libshutdown2.o ABSOLUTE
    ../clib/longlong.s                       0x00000000   Number         0  llushr.o ABSOLUTE
    ../clib/memcpset.s                       0x00000000   Number         0  rt_memclr.o ABSOLUTE
    ../clib/memcpset.s                       0x00000000   Number         0  rt_memclr_w.o ABSOLUTE
    ../clib/memcpset.s                       0x00000000   Number         0  rt_memcpy_w.o ABSOLUTE
    ../clib/memcpset.s                       0x00000000   Number         0  aeabi_memset.o ABSOLUTE
    ../clib/memcpset.s                       0x00000000   Number         0  rt_memcpy_v6.o ABSOLUTE
    ../clib/signal.c                         0x00000000   Number         0  defsig_other.o ABSOLUTE
    ../clib/signal.c                         0x00000000   Number         0  defsig_segv_inner.o ABSOLUTE
    ../clib/signal.c                         0x00000000   Number         0  defsig_cppl_inner.o ABSOLUTE
    ../clib/signal.c                         0x00000000   Number         0  defsig_pvfn_inner.o ABSOLUTE
    ../clib/signal.c                         0x00000000   Number         0  defsig_stak_inner.o ABSOLUTE
    ../clib/signal.c                         0x00000000   Number         0  defsig_fpe_inner.o ABSOLUTE
    ../clib/signal.c                         0x00000000   Number         0  defsig_abrt_inner.o ABSOLUTE
    ../clib/signal.c                         0x00000000   Number         0  defsig_general.o ABSOLUTE
    ../clib/signal.c                         0x00000000   Number         0  __raise.o ABSOLUTE
    ../clib/signal.c                         0x00000000   Number         0  defsig_rtmem_inner.o ABSOLUTE
    ../clib/signal.c                         0x00000000   Number         0  defsig_exit.o ABSOLUTE
    ../clib/signal.c                         0x00000000   Number         0  defsig_rtmem_formal.o ABSOLUTE
    ../clib/signal.c                         0x00000000   Number         0  defsig_rtmem_outer.o ABSOLUTE
    ../clib/signal.c                         0x00000000   Number         0  defsig_rtred_inner.o ABSOLUTE
    ../clib/signal.s                         0x00000000   Number         0  defsig.o ABSOLUTE
    ../clib/stdlib.c                         0x00000000   Number         0  exit.o ABSOLUTE
    ../clib/string.c                         0x00000000   Number         0  strlen.o ABSOLUTE
    ../fplib/fpinit.s                        0x00000000   Number         0  fpinit.o ABSOLUTE
    ..\Drivers\CMSIS\Device\ST\STM32F1xx\Source\Templates\arm\startup_stm32f103x6.s 0x00000000   Number         0  startup_stm32f103x6.o ABSOLUTE
    ..\Drivers\CMSIS\Device\ST\STM32F1xx\Source\Templates\system_stm32f1xx.c 0x00000000   Number         0  system_stm32f1xx.o ABSOLUTE
    ..\Drivers\STM32F1xx_HAL_Driver\Src\stm32f1xx_hal.c 0x00000000   Number         0  stm32f1xx_hal.o ABSOLUTE
    ..\Drivers\STM32F1xx_HAL_Driver\Src\stm32f1xx_hal_cortex.c 0x00000000   Number         0  stm32f1xx_hal_cortex.o ABSOLUTE
    ..\Drivers\STM32F1xx_HAL_Driver\Src\stm32f1xx_hal_crc.c 0x00000000   Number         0  stm32f1xx_hal_crc.o ABSOLUTE
    ..\Drivers\STM32F1xx_HAL_Driver\Src\stm32f1xx_hal_dma.c 0x00000000   Number         0  stm32f1xx_hal_dma.o ABSOLUTE
    ..\Drivers\STM32F1xx_HAL_Driver\Src\stm32f1xx_hal_flash.c 0x00000000   Number         0  stm32f1xx_hal_flash.o ABSOLUTE
    ..\Drivers\STM32F1xx_HAL_Driver\Src\stm32f1xx_hal_flash_ex.c 0x00000000   Number         0  stm32f1xx_hal_flash_ex.o ABSOLUTE
    ..\Drivers\STM32F1xx_HAL_Driver\Src\stm32f1xx_hal_gpio.c 0x00000000   Number         0  stm32f1xx_hal_gpio.o ABSOLUTE
    ..\Drivers\STM32F1xx_HAL_Driver\Src\stm32f1xx_hal_gpio_ex.c 0x00000000   Number         0  stm32f1xx_hal_gpio_ex.o ABSOLUTE
    ..\Drivers\STM32F1xx_HAL_Driver\Src\stm32f1xx_hal_pwr.c 0x00000000   Number         0  stm32f1xx_hal_pwr.o ABSOLUTE
    ..\Drivers\STM32F1xx_HAL_Driver\Src\stm32f1xx_hal_rcc.c 0x00000000   Number         0  stm32f1xx_hal_rcc.o ABSOLUTE
    ..\Drivers\STM32F1xx_HAL_Driver\Src\stm32f1xx_hal_rcc_ex.c 0x00000000   Number         0  stm32f1xx_hal_rcc_ex.o ABSOLUTE
    ..\Drivers\STM32F1xx_HAL_Driver\Src\stm32f1xx_hal_spi.c 0x00000000   Number         0  stm32f1xx_hal_spi.o ABSOLUTE
    ..\Drivers\STM32F1xx_HAL_Driver\Src\stm32f1xx_hal_spi_ex.c 0x00000000   Number         0  stm32f1xx_hal_spi_ex.o ABSOLUTE
    ..\Drivers\STM32F1xx_HAL_Driver\Src\stm32f1xx_hal_tim.c 0x00000000   Number         0  stm32f1xx_hal_tim.o ABSOLUTE
    ..\Drivers\STM32F1xx_HAL_Driver\Src\stm32f1xx_hal_tim_ex.c 0x00000000   Number         0  stm32f1xx_hal_tim_ex.o ABSOLUTE
    ..\Drivers\STM32F1xx_HAL_Driver\Src\stm32f1xx_hal_uart.c 0x00000000   Number         0  stm32f1xx_hal_uart.o ABSOLUTE
    ..\Middlewares\Third_Party\FreeRTOS\Source\CMSIS_RTOS\cmsis_os.c 0x00000000   Number         0  cmsis_os.o ABSOLUTE
    ..\Middlewares\Third_Party\FreeRTOS\Source\croutine.c 0x00000000   Number         0  croutine.o ABSOLUTE
    ..\Middlewares\Third_Party\FreeRTOS\Source\event_groups.c 0x00000000   Number         0  event_groups.o ABSOLUTE
    ..\Middlewares\Third_Party\FreeRTOS\Source\list.c 0x00000000   Number         0  list.o ABSOLUTE
    ..\Middlewares\Third_Party\FreeRTOS\Source\portable\MemMang\heap_4.c 0x00000000   Number         0  heap_4.o ABSOLUTE
    ..\Middlewares\Third_Party\FreeRTOS\Source\portable\RVDS\ARM_CM3\port.c 0x00000000   Number         0  port.o ABSOLUTE
    ..\Middlewares\Third_Party\FreeRTOS\Source\queue.c 0x00000000   Number         0  queue.o ABSOLUTE
    ..\Middlewares\Third_Party\FreeRTOS\Source\tasks.c 0x00000000   Number         0  tasks.o ABSOLUTE
    ..\Middlewares\Third_Party\FreeRTOS\Source\timers.c 0x00000000   Number         0  timers.o ABSOLUTE
    ..\Src\SSD1306.c                         0x00000000   Number         0  ssd1306.o ABSOLUTE
    ..\Src\crt0.c                            0x00000000   Number         0  crt0.o ABSOLUTE
    ..\Src\fonts.c                           0x00000000   Number         0  fonts.o ABSOLUTE
    ..\Src\freertos.c                        0x00000000   Number         0  freertos.o ABSOLUTE
    ..\Src\gfx.c                             0x00000000   Number         0  gfx.o ABSOLUTE
    ..\Src\main.c                            0x00000000   Number         0  main.o ABSOLUTE
    ..\Src\stm32f1xx_hal_msp.c               0x00000000   Number         0  stm32f1xx_hal_msp.o ABSOLUTE
    ..\Src\stm32f1xx_hal_timebase_TIM.c      0x00000000   Number         0  stm32f1xx_hal_timebase_tim.o ABSOLUTE
    ..\Src\stm32f1xx_it.c                    0x00000000   Number         0  stm32f1xx_it.o ABSOLUTE
    ..\Src\tft.c                             0x00000000   Number         0  tft.o ABSOLUTE
    ..\\Drivers\\CMSIS\\Device\\ST\\STM32F1xx\\Source\\Templates\\system_stm32f1xx.c 0x00000000   Number         0  system_stm32f1xx.o ABSOLUTE
    ..\\Drivers\\STM32F1xx_HAL_Driver\\Src\\stm32f1xx_hal.c 0x00000000   Number         0  stm32f1xx_hal.o ABSOLUTE
    ..\\Drivers\\STM32F1xx_HAL_Driver\\Src\\stm32f1xx_hal_cortex.c 0x00000000   Number         0  stm32f1xx_hal_cortex.o ABSOLUTE
    ..\\Drivers\\STM32F1xx_HAL_Driver\\Src\\stm32f1xx_hal_crc.c 0x00000000   Number         0  stm32f1xx_hal_crc.o ABSOLUTE
    ..\\Drivers\\STM32F1xx_HAL_Driver\\Src\\stm32f1xx_hal_dma.c 0x00000000   Number         0  stm32f1xx_hal_dma.o ABSOLUTE
    ..\\Drivers\\STM32F1xx_HAL_Driver\\Src\\stm32f1xx_hal_flash.c 0x00000000   Number         0  stm32f1xx_hal_flash.o ABSOLUTE
    ..\\Drivers\\STM32F1xx_HAL_Driver\\Src\\stm32f1xx_hal_flash_ex.c 0x00000000   Number         0  stm32f1xx_hal_flash_ex.o ABSOLUTE
    ..\\Drivers\\STM32F1xx_HAL_Driver\\Src\\stm32f1xx_hal_gpio.c 0x00000000   Number         0  stm32f1xx_hal_gpio.o ABSOLUTE
    ..\\Drivers\\STM32F1xx_HAL_Driver\\Src\\stm32f1xx_hal_gpio_ex.c 0x00000000   Number         0  stm32f1xx_hal_gpio_ex.o ABSOLUTE
    ..\\Drivers\\STM32F1xx_HAL_Driver\\Src\\stm32f1xx_hal_pwr.c 0x00000000   Number         0  stm32f1xx_hal_pwr.o ABSOLUTE
    ..\\Drivers\\STM32F1xx_HAL_Driver\\Src\\stm32f1xx_hal_rcc.c 0x00000000   Number         0  stm32f1xx_hal_rcc.o ABSOLUTE
    ..\\Drivers\\STM32F1xx_HAL_Driver\\Src\\stm32f1xx_hal_rcc_ex.c 0x00000000   Number         0  stm32f1xx_hal_rcc_ex.o ABSOLUTE
    ..\\Drivers\\STM32F1xx_HAL_Driver\\Src\\stm32f1xx_hal_spi.c 0x00000000   Number         0  stm32f1xx_hal_spi.o ABSOLUTE
    ..\\Drivers\\STM32F1xx_HAL_Driver\\Src\\stm32f1xx_hal_spi_ex.c 0x00000000   Number         0  stm32f1xx_hal_spi_ex.o ABSOLUTE
    ..\\Drivers\\STM32F1xx_HAL_Driver\\Src\\stm32f1xx_hal_tim.c 0x00000000   Number         0  stm32f1xx_hal_tim.o ABSOLUTE
    ..\\Drivers\\STM32F1xx_HAL_Driver\\Src\\stm32f1xx_hal_tim_ex.c 0x00000000   Number         0  stm32f1xx_hal_tim_ex.o ABSOLUTE
    ..\\Drivers\\STM32F1xx_HAL_Driver\\Src\\stm32f1xx_hal_uart.c 0x00000000   Number         0  stm32f1xx_hal_uart.o ABSOLUTE
    ..\\Middlewares\\Third_Party\\FreeRTOS\\Source\\CMSIS_RTOS\\cmsis_os.c 0x00000000   Number         0  cmsis_os.o ABSOLUTE
    ..\\Middlewares\\Third_Party\\FreeRTOS\\Source\\portable\\RVDS\\ARM_CM3\\port.c 0x00000000   Number         0  port.o ABSOLUTE
    ..\\Src\\SSD1306.c                       0x00000000   Number         0  ssd1306.o ABSOLUTE
    ..\\Src\\fonts.c                         0x00000000   Number         0  fonts.o ABSOLUTE
    ..\\Src\\main.c                          0x00000000   Number         0  main.o ABSOLUTE
    ..\\Src\\stm32f1xx_hal_msp.c             0x00000000   Number         0  stm32f1xx_hal_msp.o ABSOLUTE
    ..\\Src\\stm32f1xx_hal_timebase_TIM.c    0x00000000   Number         0  stm32f1xx_hal_timebase_tim.o ABSOLUTE
    ..\\Src\\stm32f1xx_it.c                  0x00000000   Number         0  stm32f1xx_it.o ABSOLUTE
    ..\\Src\\tft.c                           0x00000000   Number         0  tft.o ABSOLUTE
    ..\\bsp\\ST7735.c                        0x00000000   Number         0  st7735.o ABSOLUTE
    ..\bsp\ST7735.c                          0x00000000   Number         0  st7735.o ABSOLUTE
    dc.s                                     0x00000000   Number         0  dc.o ABSOLUTE
    RESET                                    0x08000000   Section      236  startup_stm32f103x6.o(RESET)
    !!!main                                  0x080000ec   Section        8  __main.o(!!!main)
    !!!scatter                               0x080000f4   Section       52  __scatter.o(!!!scatter)
    !!handler_copy                           0x08000128   Section       26  __scatter_copy.o(!!handler_copy)
    !!handler_zi                             0x08000144   Section       28  __scatter_zi.o(!!handler_zi)
    .ARM.Collect$$libinit$$00000000          0x08000160   Section        2  libinit.o(.ARM.Collect$$libinit$$00000000)
    .ARM.Collect$$libinit$$00000002          0x08000162   Section        0  libinit2.o(.ARM.Collect$$libinit$$00000002)
    .ARM.Collect$$libinit$$00000004          0x08000162   Section        0  libinit2.o(.ARM.Collect$$libinit$$00000004)
    .ARM.Collect$$libinit$$0000000A          0x08000162   Section        0  libinit2.o(.ARM.Collect$$libinit$$0000000A)
    .ARM.Collect$$libinit$$0000000C          0x08000162   Section        0  libinit2.o(.ARM.Collect$$libinit$$0000000C)
    .ARM.Collect$$libinit$$0000000E          0x08000162   Section        0  libinit2.o(.ARM.Collect$$libinit$$0000000E)
    .ARM.Collect$$libinit$$00000011          0x08000162   Section        0  libinit2.o(.ARM.Collect$$libinit$$00000011)
    .ARM.Collect$$libinit$$00000013          0x08000162   Section        0  libinit2.o(.ARM.Collect$$libinit$$00000013)
    .ARM.Collect$$libinit$$00000015          0x08000162   Section        0  libinit2.o(.ARM.Collect$$libinit$$00000015)
    .ARM.Collect$$libinit$$00000017          0x08000162   Section        0  libinit2.o(.ARM.Collect$$libinit$$00000017)
    .ARM.Collect$$libinit$$00000019          0x08000162   Section        0  libinit2.o(.ARM.Collect$$libinit$$00000019)
    .ARM.Collect$$libinit$$0000001B          0x08000162   Section        0  libinit2.o(.ARM.Collect$$libinit$$0000001B)
    .ARM.Collect$$libinit$$0000001D          0x08000162   Section        0  libinit2.o(.ARM.Collect$$libinit$$0000001D)
    .ARM.Collect$$libinit$$0000001F          0x08000162   Section        0  libinit2.o(.ARM.Collect$$libinit$$0000001F)
    .ARM.Collect$$libinit$$00000021          0x08000162   Section        0  libinit2.o(.ARM.Collect$$libinit$$00000021)
    .ARM.Collect$$libinit$$00000023          0x08000162   Section        0  libinit2.o(.ARM.Collect$$libinit$$00000023)
    .ARM.Collect$$libinit$$00000025          0x08000162   Section        0  libinit2.o(.ARM.Collect$$libinit$$00000025)
    .ARM.Collect$$libinit$$0000002C          0x08000162   Section        0  libinit2.o(.ARM.Collect$$libinit$$0000002C)
    .ARM.Collect$$libinit$$0000002E          0x08000162   Section        0  libinit2.o(.ARM.Collect$$libinit$$0000002E)
    .ARM.Collect$$libinit$$00000030          0x08000162   Section        0  libinit2.o(.ARM.Collect$$libinit$$00000030)
    .ARM.Collect$$libinit$$00000032          0x08000162   Section        0  libinit2.o(.ARM.Collect$$libinit$$00000032)
    .ARM.Collect$$libinit$$00000033          0x08000162   Section        2  libinit2.o(.ARM.Collect$$libinit$$00000033)
    .ARM.Collect$$libshutdown$$00000000      0x08000164   Section        2  libshutdown.o(.ARM.Collect$$libshutdown$$00000000)
    .ARM.Collect$$libshutdown$$00000002      0x08000166   Section        0  libshutdown2.o(.ARM.Collect$$libshutdown$$00000002)
    .ARM.Collect$$libshutdown$$00000004      0x08000166   Section        0  libshutdown2.o(.ARM.Collect$$libshutdown$$00000004)
    .ARM.Collect$$libshutdown$$00000007      0x08000166   Section        0  libshutdown2.o(.ARM.Collect$$libshutdown$$00000007)
    .ARM.Collect$$libshutdown$$0000000A      0x08000166   Section        0  libshutdown2.o(.ARM.Collect$$libshutdown$$0000000A)
    .ARM.Collect$$libshutdown$$0000000C      0x08000166   Section        0  libshutdown2.o(.ARM.Collect$$libshutdown$$0000000C)
    .ARM.Collect$$libshutdown$$0000000F      0x08000166   Section        0  libshutdown2.o(.ARM.Collect$$libshutdown$$0000000F)
    .ARM.Collect$$libshutdown$$00000010      0x08000166   Section        2  libshutdown2.o(.ARM.Collect$$libshutdown$$00000010)
    .ARM.Collect$$rtentry$$00000000          0x08000168   Section        0  __rtentry.o(.ARM.Collect$$rtentry$$00000000)
    .ARM.Collect$$rtentry$$00000002          0x08000168   Section        0  __rtentry2.o(.ARM.Collect$$rtentry$$00000002)
    .ARM.Collect$$rtentry$$00000004          0x08000168   Section        6  __rtentry4.o(.ARM.Collect$$rtentry$$00000004)
    .ARM.Collect$$rtentry$$00000009          0x0800016e   Section        0  __rtentry2.o(.ARM.Collect$$rtentry$$00000009)
    .ARM.Collect$$rtentry$$0000000A          0x0800016e   Section        4  __rtentry2.o(.ARM.Collect$$rtentry$$0000000A)
    .ARM.Collect$$rtentry$$0000000C          0x08000172   Section        0  __rtentry2.o(.ARM.Collect$$rtentry$$0000000C)
    .ARM.Collect$$rtentry$$0000000D          0x08000172   Section        8  __rtentry2.o(.ARM.Collect$$rtentry$$0000000D)
    .ARM.Collect$$rtexit$$00000000           0x0800017a   Section        2  rtexit.o(.ARM.Collect$$rtexit$$00000000)
    .ARM.Collect$$rtexit$$00000002           0x0800017c   Section        0  rtexit2.o(.ARM.Collect$$rtexit$$00000002)
    .ARM.Collect$$rtexit$$00000003           0x0800017c   Section        4  rtexit2.o(.ARM.Collect$$rtexit$$00000003)
    .ARM.Collect$$rtexit$$00000004           0x08000180   Section        6  rtexit2.o(.ARM.Collect$$rtexit$$00000004)
    .emb_text                                0x08000188   Section      162  port.o(.emb_text)
    .text                                    0x0800022c   Section       64  startup_stm32f103x6.o(.text)
    .text                                    0x0800026c   Section        0  strlen.o(.text)
    .text                                    0x080002aa   Section      100  rt_memcpy_w.o(.text)
    .text                                    0x0800030e   Section        0  heapauxi.o(.text)
    .text                                    0x08000314   Section       74  sys_stackheap_outer.o(.text)
    .text                                    0x0800035e   Section        0  exit.o(.text)
    .text                                    0x08000370   Section        8  libspace.o(.text)
    .text                                    0x08000378   Section        0  sys_exit.o(.text)
    .text                                    0x08000384   Section        2  use_no_semi.o(.text)
    .text                                    0x08000386   Section        0  indicate_semi.o(.text)
    i.BusFault_Handler                       0x08000386   Section        0  stm32f1xx_it.o(i.BusFault_Handler)
    i.DMA1_Channel3_IRQHandler               0x0800038c   Section        0  stm32f1xx_it.o(i.DMA1_Channel3_IRQHandler)
    i.DMA1_Channel4_IRQHandler               0x0800039c   Section        0  stm32f1xx_it.o(i.DMA1_Channel4_IRQHandler)
    i.DMA_SetConfig                          0x080003ac   Section        0  stm32f1xx_hal_dma.o(i.DMA_SetConfig)
    DMA_SetConfig                            0x080003ad   Thumb Code    32  stm32f1xx_hal_dma.o(i.DMA_SetConfig)
    i.DebugMon_Handler                       0x080003cc   Section        0  stm32f1xx_it.o(i.DebugMon_Handler)
    i.Error_Handler                          0x080003ce   Section        0  main.o(i.Error_Handler)
    i.HAL_CRC_Init                           0x080003d2   Section        0  stm32f1xx_hal_crc.o(i.HAL_CRC_Init)
    i.HAL_CRC_MspInit                        0x080003f4   Section        0  stm32f1xx_hal_msp.o(i.HAL_CRC_MspInit)
    i.HAL_DMA_IRQHandler                     0x08000424   Section        0  stm32f1xx_hal_dma.o(i.HAL_DMA_IRQHandler)
    i.HAL_DMA_Init                           0x08000734   Section        0  stm32f1xx_hal_dma.o(i.HAL_DMA_Init)
    i.HAL_DMA_Start_IT                       0x08000788   Section        0  stm32f1xx_hal_dma.o(i.HAL_DMA_Start_IT)
    i.HAL_Delay                              0x080007fe   Section        0  stm32f1xx_hal.o(i.HAL_Delay)
    i.HAL_GPIO_Init                          0x08000818   Section        0  stm32f1xx_hal_gpio.o(i.HAL_GPIO_Init)
    i.HAL_GPIO_WritePin                      0x08000b20   Section        0  stm32f1xx_hal_gpio.o(i.HAL_GPIO_WritePin)
    i.HAL_GetTick                            0x08000b2c   Section        0  stm32f1xx_hal.o(i.HAL_GetTick)
    i.HAL_IncTick                            0x08000b38   Section        0  stm32f1xx_hal.o(i.HAL_IncTick)
    i.HAL_Init                               0x08000b48   Section        0  stm32f1xx_hal.o(i.HAL_Init)
    i.HAL_InitTick                           0x08000b70   Section        0  stm32f1xx_hal_timebase_tim.o(i.HAL_InitTick)
    i.HAL_MspInit                            0x08000bf8   Section        0  stm32f1xx_hal_msp.o(i.HAL_MspInit)
    i.HAL_NVIC_EnableIRQ                     0x08000c84   Section        0  stm32f1xx_hal_cortex.o(i.HAL_NVIC_EnableIRQ)
    i.HAL_NVIC_SetPriority                   0x08000c9e   Section        0  stm32f1xx_hal_cortex.o(i.HAL_NVIC_SetPriority)
    i.HAL_NVIC_SetPriorityGrouping           0x08000d1c   Section        0  stm32f1xx_hal_cortex.o(i.HAL_NVIC_SetPriorityGrouping)
    i.HAL_RCC_ClockConfig                    0x08000d44   Section        0  stm32f1xx_hal_rcc.o(i.HAL_RCC_ClockConfig)
    i.HAL_RCC_GetClockConfig                 0x08000fdc   Section        0  stm32f1xx_hal_rcc.o(i.HAL_RCC_GetClockConfig)
    i.HAL_RCC_GetHCLKFreq                    0x08001020   Section        0  stm32f1xx_hal_rcc.o(i.HAL_RCC_GetHCLKFreq)
    i.HAL_RCC_GetPCLK1Freq                   0x0800102c   Section        0  stm32f1xx_hal_rcc.o(i.HAL_RCC_GetPCLK1Freq)
    i.HAL_RCC_GetPCLK2Freq                   0x08001058   Section        0  stm32f1xx_hal_rcc.o(i.HAL_RCC_GetPCLK2Freq)
    i.HAL_RCC_GetSysClockFreq                0x08001084   Section        0  stm32f1xx_hal_rcc.o(i.HAL_RCC_GetSysClockFreq)
    i.HAL_RCC_OscConfig                      0x08001138   Section        0  stm32f1xx_hal_rcc.o(i.HAL_RCC_OscConfig)
    i.HAL_SPI_Init                           0x080019b0   Section        0  stm32f1xx_hal_spi_ex.o(i.HAL_SPI_Init)
    i.HAL_SPI_MspInit                        0x08001a3c   Section        0  stm32f1xx_hal_msp.o(i.HAL_SPI_MspInit)
    i.HAL_SPI_Transmit                       0x08001ac4   Section        0  stm32f1xx_hal_spi.o(i.HAL_SPI_Transmit)
    i.HAL_SPI_TransmitReceive                0x08001c84   Section        0  stm32f1xx_hal_spi.o(i.HAL_SPI_TransmitReceive)
    i.HAL_SYSTICK_CLKSourceConfig            0x08001fc8   Section        0  stm32f1xx_hal_cortex.o(i.HAL_SYSTICK_CLKSourceConfig)
    i.HAL_SYSTICK_Config                     0x08001ff0   Section        0  stm32f1xx_hal_cortex.o(i.HAL_SYSTICK_Config)
    i.HAL_TIMEx_BreakCallback                0x08002024   Section        0  stm32f1xx_hal_tim_ex.o(i.HAL_TIMEx_BreakCallback)
    i.HAL_TIMEx_CommutationCallback          0x08002026   Section        0  stm32f1xx_hal_tim_ex.o(i.HAL_TIMEx_CommutationCallback)
    i.HAL_TIM_Base_Init                      0x08002028   Section        0  stm32f1xx_hal_tim.o(i.HAL_TIM_Base_Init)
    i.HAL_TIM_Base_MspInit                   0x0800205c   Section        0  stm32f1xx_hal_tim.o(i.HAL_TIM_Base_MspInit)
    i.HAL_TIM_Base_Start_IT                  0x0800205e   Section        0  stm32f1xx_hal_tim.o(i.HAL_TIM_Base_Start_IT)
    i.HAL_TIM_IC_CaptureCallback             0x0800207c   Section        0  stm32f1xx_hal_tim.o(i.HAL_TIM_IC_CaptureCallback)
    i.HAL_TIM_IRQHandler                     0x0800207e   Section        0  stm32f1xx_hal_tim.o(i.HAL_TIM_IRQHandler)
    i.HAL_TIM_OC_DelayElapsedCallback        0x08002214   Section        0  stm32f1xx_hal_tim.o(i.HAL_TIM_OC_DelayElapsedCallback)
    i.HAL_TIM_PWM_PulseFinishedCallback      0x08002216   Section        0  stm32f1xx_hal_tim.o(i.HAL_TIM_PWM_PulseFinishedCallback)
    i.HAL_TIM_PeriodElapsedCallback          0x08002218   Section        0  main.o(i.HAL_TIM_PeriodElapsedCallback)
    i.HAL_TIM_TriggerCallback                0x080022e4   Section        0  stm32f1xx_hal_tim.o(i.HAL_TIM_TriggerCallback)
    i.HAL_UART_ErrorCallback                 0x080022e6   Section        0  stm32f1xx_hal_uart.o(i.HAL_UART_ErrorCallback)
    i.HAL_UART_IRQHandler                    0x080022e8   Section        0  stm32f1xx_hal_uart.o(i.HAL_UART_IRQHandler)
    i.HAL_UART_Init                          0x080023c2   Section        0  stm32f1xx_hal_uart.o(i.HAL_UART_Init)
    i.HAL_UART_MspInit                       0x08002430   Section        0  stm32f1xx_hal_msp.o(i.HAL_UART_MspInit)
    i.HAL_UART_Receive                       0x080024e0   Section        0  stm32f1xx_hal_uart.o(i.HAL_UART_Receive)
    i.HAL_UART_RxCpltCallback                0x080025d8   Section        0  stm32f1xx_hal_uart.o(i.HAL_UART_RxCpltCallback)
    i.HAL_UART_Transmit_DMA                  0x080025dc   Section        0  stm32f1xx_hal_uart.o(i.HAL_UART_Transmit_DMA)
    i.HAL_UART_TxCpltCallback                0x08002684   Section        0  stm32f1xx_hal_uart.o(i.HAL_UART_TxCpltCallback)
    i.HAL_UART_TxHalfCpltCallback            0x08002686   Section        0  stm32f1xx_hal_uart.o(i.HAL_UART_TxHalfCpltCallback)
    i.HardFault_Handler                      0x08002688   Section        0  stm32f1xx_it.o(i.HardFault_Handler)
    i.LCD_setcol                             0x0800268c   Section        0  tft.o(i.LCD_setcol)
    i.LCD_setpage                            0x080026ec   Section        0  tft.o(i.LCD_setpage)
    i.LCD_setpixel                           0x0800274c   Section        0  tft.o(i.LCD_setpixel)
    i.MX_CRC_Init                            0x080027bc   Section        0  main.o(i.MX_CRC_Init)
    MX_CRC_Init                              0x080027bd   Thumb Code    22  main.o(i.MX_CRC_Init)
    i.MX_DMA_Init                            0x080027dc   Section        0  main.o(i.MX_DMA_Init)
    MX_DMA_Init                              0x080027dd   Thumb Code    64  main.o(i.MX_DMA_Init)
    i.MX_GPIO_Init                           0x08002820   Section        0  main.o(i.MX_GPIO_Init)
    MX_GPIO_Init                             0x08002821   Thumb Code   248  main.o(i.MX_GPIO_Init)
    i.MX_SPI1_Init                           0x08002930   Section        0  main.o(i.MX_SPI1_Init)
    MX_SPI1_Init                             0x08002931   Thumb Code    58  main.o(i.MX_SPI1_Init)
    i.MX_USART1_UART_Init                    0x08002974   Section        0  main.o(i.MX_USART1_UART_Init)
    MX_USART1_UART_Init                      0x08002975   Thumb Code    46  main.o(i.MX_USART1_UART_Init)
    i.MemManage_Handler                      0x080029ac   Section        0  stm32f1xx_it.o(i.MemManage_Handler)
    i.NMI_Handler                            0x080029b0   Section        0  stm32f1xx_it.o(i.NMI_Handler)
    i.NVIC_GetPriorityGrouping               0x080029b4   Section        0  stm32f1xx_hal_cortex.o(i.NVIC_GetPriorityGrouping)
    NVIC_GetPriorityGrouping                 0x080029b5   Thumb Code    10  stm32f1xx_hal_cortex.o(i.NVIC_GetPriorityGrouping)
    i.NVIC_SetPriority                       0x080029c4   Section        0  stm32f1xx_hal_cortex.o(i.NVIC_SetPriority)
    NVIC_SetPriority                         0x080029c5   Thumb Code    32  stm32f1xx_hal_cortex.o(i.NVIC_SetPriority)
    i.SPI_WaitOnFlagUntilTimeout             0x080029ec   Section        0  stm32f1xx_hal_spi.o(i.SPI_WaitOnFlagUntilTimeout)
    SPI_WaitOnFlagUntilTimeout               0x080029ed   Thumb Code   276  stm32f1xx_hal_spi.o(i.SPI_WaitOnFlagUntilTimeout)
    i.ST7735_FillRectangle                   0x08002b00   Section        0  st7735.o(i.ST7735_FillRectangle)
    i.ST7735_FillScreen                      0x08002bb8   Section        0  st7735.o(i.ST7735_FillScreen)
    i.ST7735_SetAddressWindow                0x08002bcc   Section        0  st7735.o(i.ST7735_SetAddressWindow)
    ST7735_SetAddressWindow                  0x08002bcd   Thumb Code    82  st7735.o(i.ST7735_SetAddressWindow)
    i.ST7735_WriteCommand                    0x08002c20   Section        0  st7735.o(i.ST7735_WriteCommand)
    i.ST7735_WriteData                       0x08002c48   Section        0  st7735.o(i.ST7735_WriteData)
    ST7735_WriteData                         0x08002c49   Thumb Code    32  st7735.o(i.ST7735_WriteData)
    i.SysTick_Handler                        0x08002c70   Section        0  stm32f1xx_it.o(i.SysTick_Handler)
    i.SystemClock_Config                     0x08002c78   Section        0  main.o(i.SystemClock_Config)
    i.SystemInit                             0x08002cec   Section        0  system_stm32f1xx.o(i.SystemInit)
    i.TIM1_UP_IRQHandler                     0x08002d44   Section        0  stm32f1xx_it.o(i.TIM1_UP_IRQHandler)
    i.TIM_Base_SetConfig                     0x08002d54   Section        0  stm32f1xx_hal_tim.o(i.TIM_Base_SetConfig)
    i.TaskClock                              0x08002db0   Section        0  main.o(i.TaskClock)
    i.UART_DMAError                          0x08003178   Section        0  stm32f1xx_hal_uart.o(i.UART_DMAError)
    UART_DMAError                            0x08003179   Thumb Code    34  stm32f1xx_hal_uart.o(i.UART_DMAError)
    i.UART_DMATransmitCplt                   0x0800319a   Section        0  stm32f1xx_hal_uart.o(i.UART_DMATransmitCplt)
    UART_DMATransmitCplt                     0x0800319b   Thumb Code    54  stm32f1xx_hal_uart.o(i.UART_DMATransmitCplt)
    i.UART_DMATxHalfCplt                     0x080031d0   Section        0  stm32f1xx_hal_uart.o(i.UART_DMATxHalfCplt)
    UART_DMATxHalfCplt                       0x080031d1   Thumb Code    14  stm32f1xx_hal_uart.o(i.UART_DMATxHalfCplt)
    i.UART_EndTransmit_IT                    0x080031de   Section        0  stm32f1xx_hal_uart.o(i.UART_EndTransmit_IT)
    UART_EndTransmit_IT                      0x080031df   Thumb Code    48  stm32f1xx_hal_uart.o(i.UART_EndTransmit_IT)
    i.UART_Receive_IT                        0x0800320e   Section        0  stm32f1xx_hal_uart.o(i.UART_Receive_IT)
    UART_Receive_IT                          0x0800320f   Thumb Code   188  stm32f1xx_hal_uart.o(i.UART_Receive_IT)
    i.UART_SetConfig                         0x080032cc   Section        0  stm32f1xx_hal_uart.o(i.UART_SetConfig)
    UART_SetConfig                           0x080032cd   Thumb Code   450  stm32f1xx_hal_uart.o(i.UART_SetConfig)
    i.UART_Transmit_IT                       0x08003494   Section        0  stm32f1xx_hal_uart.o(i.UART_Transmit_IT)
    UART_Transmit_IT                         0x08003495   Thumb Code   112  stm32f1xx_hal_uart.o(i.UART_Transmit_IT)
    i.UART_WaitOnFlagUntilTimeout            0x08003504   Section        0  stm32f1xx_hal_uart.o(i.UART_WaitOnFlagUntilTimeout)
    UART_WaitOnFlagUntilTimeout              0x08003505   Thumb Code   250  stm32f1xx_hal_uart.o(i.UART_WaitOnFlagUntilTimeout)
    i.USART1_IRQHandler                      0x08003600   Section        0  stm32f1xx_it.o(i.USART1_IRQHandler)
    i.UsageFault_Handler                     0x08003610   Section        0  stm32f1xx_it.o(i.UsageFault_Handler)
    i.fn_fontdraw_8x5                        0x08003614   Section        0  gfx.o(i.fn_fontdraw_8x5)
    i.get_text_size                          0x08003670   Section        0  gfx.o(i.get_text_size)
    i.init_display_context                   0x080036b4   Section        0  gfx.o(i.init_display_context)
    i.is_valid                               0x080036dc   Section        0  gfx.o(i.is_valid)
    i.itoa                                   0x080036fe   Section        0  main.o(i.itoa)
    i.line                                   0x0800376a   Section        0  gfx.o(i.line)
    i.main                                   0x080037f8   Section        0  main.o(i.main)
    i.makeFreeRtosPriority                   0x0800385c   Section        0  cmsis_os.o(i.makeFreeRtosPriority)
    makeFreeRtosPriority                     0x0800385d   Thumb Code    14  cmsis_os.o(i.makeFreeRtosPriority)
    i.osKernelStart                          0x0800386a   Section        0  cmsis_os.o(i.osKernelStart)
    i.osSystickHandler                       0x08003874   Section        0  cmsis_os.o(i.osSystickHandler)
    i.osThreadCreate                         0x08003884   Section        0  cmsis_os.o(i.osThreadCreate)
    i.print_string                           0x080038c0   Section        0  main.o(i.print_string)
    i.prvAllocateTCBAndStack                 0x080038e4   Section        0  tasks.o(i.prvAllocateTCBAndStack)
    prvAllocateTCBAndStack                   0x080038e5   Thumb Code    54  tasks.o(i.prvAllocateTCBAndStack)
    i.prvCheckTasksWaitingTermination        0x0800391c   Section        0  tasks.o(i.prvCheckTasksWaitingTermination)
    prvCheckTasksWaitingTermination          0x0800391d   Thumb Code    86  tasks.o(i.prvCheckTasksWaitingTermination)
    i.prvDeleteTCB                           0x08003980   Section        0  tasks.o(i.prvDeleteTCB)
    prvDeleteTCB                             0x08003981   Thumb Code    18  tasks.o(i.prvDeleteTCB)
    i.prvHeapInit                            0x08003994   Section        0  heap_4.o(i.prvHeapInit)
    prvHeapInit                              0x08003995   Thumb Code    98  heap_4.o(i.prvHeapInit)
    i.prvIdleTask                            0x08003a10   Section        0  tasks.o(i.prvIdleTask)
    prvIdleTask                              0x08003a11   Thumb Code    20  tasks.o(i.prvIdleTask)
    i.prvInitialiseTCBVariables              0x08003a28   Section        0  tasks.o(i.prvInitialiseTCBVariables)
    prvInitialiseTCBVariables                0x08003a29   Thumb Code    98  tasks.o(i.prvInitialiseTCBVariables)
    i.prvInitialiseTaskLists                 0x08003a8c   Section        0  tasks.o(i.prvInitialiseTaskLists)
    prvInitialiseTaskLists                   0x08003a8d   Thumb Code    70  tasks.o(i.prvInitialiseTaskLists)
    i.prvInsertBlockIntoFreeList             0x08003af4   Section        0  heap_4.o(i.prvInsertBlockIntoFreeList)
    prvInsertBlockIntoFreeList               0x08003af5   Thumb Code    96  heap_4.o(i.prvInsertBlockIntoFreeList)
    i.prvResetNextTaskUnblockTime            0x08003b5c   Section        0  tasks.o(i.prvResetNextTaskUnblockTime)
    prvResetNextTaskUnblockTime              0x08003b5d   Thumb Code    42  tasks.o(i.prvResetNextTaskUnblockTime)
    i.prvTaskExitError                       0x08003b90   Section        0  port.o(i.prvTaskExitError)
    prvTaskExitError                         0x08003b91   Thumb Code    32  port.o(i.prvTaskExitError)
    i.putchar_tft                            0x08003bb4   Section        0  gfx.o(i.putchar_tft)
    i.pvPortMalloc                           0x08003c14   Section        0  heap_4.o(i.pvPortMalloc)
    i.pxPortInitialiseStack                  0x08003d28   Section        0  port.o(i.pxPortInitialiseStack)
    i.text                                   0x08003d48   Section        0  gfx.o(i.text)
    i.tft_init                               0x08003d88   Section        0  tft.o(i.tft_init)
    i.transfer_locked                        0x08003e68   Section        0  tft.o(i.transfer_locked)
    i.uxListRemove                           0x08003e8c   Section        0  list.o(i.uxListRemove)
    i.vListInitialise                        0x08003eb4   Section        0  list.o(i.vListInitialise)
    i.vListInitialiseItem                    0x08003ece   Section        0  list.o(i.vListInitialiseItem)
    i.vListInsertEnd                         0x08003ed4   Section        0  list.o(i.vListInsertEnd)
    i.vPortEnterCritical                     0x08003eec   Section        0  port.o(i.vPortEnterCritical)
    i.vPortExitCritical                      0x08003f30   Section        0  port.o(i.vPortExitCritical)
    i.vPortFree                              0x08003f5c   Section        0  heap_4.o(i.vPortFree)
    i.vPortSetupTimerInterrupt               0x08003fd4   Section        0  port.o(i.vPortSetupTimerInterrupt)
    i.vPortYield                             0x08003ff4   Section        0  port.o(i.vPortYield)
    i.vTaskStartScheduler                    0x0800400c   Section        0  tasks.o(i.vTaskStartScheduler)
    i.vTaskSuspendAll                        0x0800406c   Section        0  tasks.o(i.vTaskSuspendAll)
    i.vTaskSwitchContext                     0x0800407c   Section        0  tasks.o(i.vTaskSwitchContext)
    i.xPortStartScheduler                    0x080040fc   Section        0  port.o(i.xPortStartScheduler)
    i.xPortSysTickHandler                    0x0800419c   Section        0  port.o(i.xPortSysTickHandler)
    i.xTaskGenericCreate                     0x080041bc   Section        0  tasks.o(i.xTaskGenericCreate)
    i.xTaskGetSchedulerState                 0x080042f0   Section        0  tasks.o(i.xTaskGetSchedulerState)
    i.xTaskIncrementTick                     0x08004310   Section        0  tasks.o(i.xTaskIncrementTick)
    i.xTaskResumeAll                         0x0800444c   Section        0  tasks.o(i.xTaskResumeAll)
    .constdata                               0x08004534   Section       24  system_stm32f1xx.o(.constdata)
    .constdata                               0x0800454c   Section       20  main.o(.constdata)
    .constdata                               0x08004560   Section      480  gfx.o(.constdata)
    u8Font8x5                                0x08004560   Data         480  gfx.o(.constdata)
    .conststring                             0x08004740   Section       13  main.o(.conststring)
    .data                                    0x20000000   Section        4  system_stm32f1xx.o(.data)
    .data                                    0x20000004   Section        4  stm32f1xx_hal.o(.data)
    uwTick                                   0x20000004   Data           4  stm32f1xx_hal.o(.data)
    .data                                    0x20000008   Section        1  stm32f1xx_hal_spi_ex.o(.data)
    .data                                    0x2000000c   Section       56  tasks.o(.data)
    pxDelayedTaskList                        0x20000010   Data           4  tasks.o(.data)
    pxOverflowDelayedTaskList                0x20000014   Data           4  tasks.o(.data)
    uxTasksDeleted                           0x20000018   Data           4  tasks.o(.data)
    uxCurrentNumberOfTasks                   0x2000001c   Data           4  tasks.o(.data)
    xTickCount                               0x20000020   Data           4  tasks.o(.data)
    uxTopReadyPriority                       0x20000024   Data           4  tasks.o(.data)
    xSchedulerRunning                        0x20000028   Data           4  tasks.o(.data)
    uxPendedTicks                            0x2000002c   Data           4  tasks.o(.data)
    xYieldPending                            0x20000030   Data           4  tasks.o(.data)
    xNumOfOverflows                          0x20000034   Data           4  tasks.o(.data)
    uxTaskNumber                             0x20000038   Data           4  tasks.o(.data)
    xNextTaskUnblockTime                     0x2000003c   Data           4  tasks.o(.data)
    uxSchedulerSuspended                     0x20000040   Data           4  tasks.o(.data)
    .data                                    0x20000044   Section       12  port.o(.data)
    uxCriticalNesting                        0x20000044   Data           4  port.o(.data)
    ucMaxSysCallPriority                     0x20000048   Data           1  port.o(.data)
    ulMaxPRIGROUPValue                       0x2000004c   Data           4  port.o(.data)
    .data                                    0x20000050   Section       24  heap_4.o(.data)
    xStart                                   0x20000050   Data           8  heap_4.o(.data)
    pxEnd                                    0x20000058   Data           4  heap_4.o(.data)
    xFreeBytesRemaining                      0x2000005c   Data           4  heap_4.o(.data)
    xMinimumEverFreeBytesRemaining           0x20000060   Data           4  heap_4.o(.data)
    xBlockAllocatedBit                       0x20000064   Data           4  heap_4.o(.data)
    .data                                    0x20000068   Section       18  main.o(.data)
    hour                                     0x20000074   Data           1  main.o(.data)
    min                                      0x20000075   Data           1  main.o(.data)
    sec                                      0x20000076   Data           1  main.o(.data)
    msec                                     0x20000077   Data           1  main.o(.data)
    changed                                  0x20000078   Data           1  main.o(.data)
    running                                  0x20000079   Data           1  main.o(.data)
    .data                                    0x2000007c   Section        8  gfx.o(.data)
    .bss                                     0x20000084   Section      240  tasks.o(.bss)
    pxReadyTasksLists                        0x20000084   Data         140  tasks.o(.bss)
    xDelayedTaskList1                        0x20000110   Data          20  tasks.o(.bss)
    xDelayedTaskList2                        0x20000124   Data          20  tasks.o(.bss)
    xPendingReadyList                        0x20000138   Data          20  tasks.o(.bss)
    xTasksWaitingTermination                 0x2000014c   Data          20  tasks.o(.bss)
    xSuspendedTaskList                       0x20000160   Data          20  tasks.o(.bss)
    .bss                                     0x20000174   Section     3072  heap_4.o(.bss)
    ucHeap                                   0x20000174   Data        3072  heap_4.o(.bss)
    .bss                                     0x20000d74   Section      288  main.o(.bss)
    lcd_ctx                                  0x20000e7c   Data          24  main.o(.bss)
    .bss                                     0x20000e94   Section       60  stm32f1xx_hal_timebase_tim.o(.bss)
    .bss                                     0x20000ed0   Section       96  libspace.o(.bss)
    HEAP                                     0x20000f30   Section      512  startup_stm32f103x6.o(HEAP)
    Heap_Mem                                 0x20000f30   Data         512  startup_stm32f103x6.o(HEAP)
    STACK                                    0x20001130   Section     1024  startup_stm32f103x6.o(STACK)
    Stack_Mem                                0x20001130   Data        1024  startup_stm32f103x6.o(STACK)
    __initial_sp                             0x20001530   Data           0  startup_stm32f103x6.o(STACK)

    Global Symbols

    Symbol Name                              Value     Ov Type        Size  Object(Section)

    BuildAttributes$$THM_ISAv4$P$D$K$B$S$PE$A:L22UL41UL21$X:L11$S22US41US21$IEEE1$IW$USESV6$~STKCKD$USESV7$~SHL$OSPACE$ROPI$EBA8$UX$STANDARDLIB$REQ8$PRES8$EABIv2 0x00000000   Number         0  anon$$obj.o ABSOLUTE
    __ARM_use_no_argv                        0x00000000   Number         0  main.o ABSOLUTE
    __ARM_exceptions_init                     - Undefined Weak Reference
    __alloca_initialize                       - Undefined Weak Reference
    __arm_preinit_                            - Undefined Weak Reference
    __cpp_initialize__aeabi_                  - Undefined Weak Reference
    __cxa_finalize                            - Undefined Weak Reference
    __rt_locale                               - Undefined Weak Reference
    __sigvec_lookup                           - Undefined Weak Reference
    _atexit_init                              - Undefined Weak Reference
    _call_atexit_fns                          - Undefined Weak Reference
    _clock_init                               - Undefined Weak Reference
    _fp_trap_init                             - Undefined Weak Reference
    _fp_trap_shutdown                         - Undefined Weak Reference
    _get_lc_collate                           - Undefined Weak Reference
    _get_lc_ctype                             - Undefined Weak Reference
    _get_lc_monetary                          - Undefined Weak Reference
    _get_lc_numeric                           - Undefined Weak Reference
    _get_lc_time                              - Undefined Weak Reference
    _getenv_init                              - Undefined Weak Reference
    _handle_redirection                       - Undefined Weak Reference
    _init_alloc                               - Undefined Weak Reference
    _init_user_alloc                          - Undefined Weak Reference
    _initio                                   - Undefined Weak Reference
    _rand_init                                - Undefined Weak Reference
    _signal_finish                            - Undefined Weak Reference
    _signal_init                              - Undefined Weak Reference
    _terminate_alloc                          - Undefined Weak Reference
    _terminate_user_alloc                     - Undefined Weak Reference
    _terminateio                              - Undefined Weak Reference
    __Vectors_Size                           0x000000ec   Number         0  startup_stm32f103x6.o ABSOLUTE
    __Vectors                                0x08000000   Data           4  startup_stm32f103x6.o(RESET)
    __Vectors_End                            0x080000ec   Data           0  startup_stm32f103x6.o(RESET)
    __main                                   0x080000ed   Thumb Code     8  __main.o(!!!main)
    __scatterload                            0x080000f5   Thumb Code     0  __scatter.o(!!!scatter)
    __scatterload_rt2                        0x080000f5   Thumb Code    44  __scatter.o(!!!scatter)
    __scatterload_rt2_thumb_only             0x080000f5   Thumb Code     0  __scatter.o(!!!scatter)
    __scatterload_null                       0x08000103   Thumb Code     0  __scatter.o(!!!scatter)
    __scatterload_copy                       0x08000129   Thumb Code    26  __scatter_copy.o(!!handler_copy)
    __scatterload_zeroinit                   0x08000145   Thumb Code    28  __scatter_zi.o(!!handler_zi)
    __rt_lib_init                            0x08000161   Thumb Code     0  libinit.o(.ARM.Collect$$libinit$$00000000)
    __rt_lib_init_alloca_1                   0x08000163   Thumb Code     0  libinit2.o(.ARM.Collect$$libinit$$0000002E)
    __rt_lib_init_argv_1                     0x08000163   Thumb Code     0  libinit2.o(.ARM.Collect$$libinit$$0000002C)
    __rt_lib_init_atexit_1                   0x08000163   Thumb Code     0  libinit2.o(.ARM.Collect$$libinit$$0000001B)
    __rt_lib_init_clock_1                    0x08000163   Thumb Code     0  libinit2.o(.ARM.Collect$$libinit$$00000021)
    __rt_lib_init_cpp_1                      0x08000163   Thumb Code     0  libinit2.o(.ARM.Collect$$libinit$$00000032)
    __rt_lib_init_exceptions_1               0x08000163   Thumb Code     0  libinit2.o(.ARM.Collect$$libinit$$00000030)
    __rt_lib_init_fp_1                       0x08000163   Thumb Code     0  libinit2.o(.ARM.Collect$$libinit$$00000002)
    __rt_lib_init_fp_trap_1                  0x08000163   Thumb Code     0  libinit2.o(.ARM.Collect$$libinit$$0000001F)
    __rt_lib_init_getenv_1                   0x08000163   Thumb Code     0  libinit2.o(.ARM.Collect$$libinit$$00000023)
    __rt_lib_init_heap_1                     0x08000163   Thumb Code     0  libinit2.o(.ARM.Collect$$libinit$$0000000A)
    __rt_lib_init_lc_collate_1               0x08000163   Thumb Code     0  libinit2.o(.ARM.Collect$$libinit$$00000011)
    __rt_lib_init_lc_ctype_1                 0x08000163   Thumb Code     0  libinit2.o(.ARM.Collect$$libinit$$00000013)
    __rt_lib_init_lc_monetary_1              0x08000163   Thumb Code     0  libinit2.o(.ARM.Collect$$libinit$$00000015)
    __rt_lib_init_lc_numeric_1               0x08000163   Thumb Code     0  libinit2.o(.ARM.Collect$$libinit$$00000017)
    __rt_lib_init_lc_time_1                  0x08000163   Thumb Code     0  libinit2.o(.ARM.Collect$$libinit$$00000019)
    __rt_lib_init_preinit_1                  0x08000163   Thumb Code     0  libinit2.o(.ARM.Collect$$libinit$$00000004)
    __rt_lib_init_rand_1                     0x08000163   Thumb Code     0  libinit2.o(.ARM.Collect$$libinit$$0000000E)
    __rt_lib_init_return                     0x08000163   Thumb Code     0  libinit2.o(.ARM.Collect$$libinit$$00000033)
    __rt_lib_init_signal_1                   0x08000163   Thumb Code     0  libinit2.o(.ARM.Collect$$libinit$$0000001D)
    __rt_lib_init_stdio_1                    0x08000163   Thumb Code     0  libinit2.o(.ARM.Collect$$libinit$$00000025)
    __rt_lib_init_user_alloc_1               0x08000163   Thumb Code     0  libinit2.o(.ARM.Collect$$libinit$$0000000C)
    __rt_lib_shutdown                        0x08000165   Thumb Code     0  libshutdown.o(.ARM.Collect$$libshutdown$$00000000)
    __rt_lib_shutdown_cpp_1                  0x08000167   Thumb Code     0  libshutdown2.o(.ARM.Collect$$libshutdown$$00000002)
    __rt_lib_shutdown_fp_trap_1              0x08000167   Thumb Code     0  libshutdown2.o(.ARM.Collect$$libshutdown$$00000007)
    __rt_lib_shutdown_heap_1                 0x08000167   Thumb Code     0  libshutdown2.o(.ARM.Collect$$libshutdown$$0000000F)
    __rt_lib_shutdown_return                 0x08000167   Thumb Code     0  libshutdown2.o(.ARM.Collect$$libshutdown$$00000010)
    __rt_lib_shutdown_signal_1               0x08000167   Thumb Code     0  libshutdown2.o(.ARM.Collect$$libshutdown$$0000000A)
    __rt_lib_shutdown_stdio_1                0x08000167   Thumb Code     0  libshutdown2.o(.ARM.Collect$$libshutdown$$00000004)
    __rt_lib_shutdown_user_alloc_1           0x08000167   Thumb Code     0  libshutdown2.o(.ARM.Collect$$libshutdown$$0000000C)
    __rt_entry                               0x08000169   Thumb Code     0  __rtentry.o(.ARM.Collect$$rtentry$$00000000)
    __rt_entry_presh_1                       0x08000169   Thumb Code     0  __rtentry2.o(.ARM.Collect$$rtentry$$00000002)
    __rt_entry_sh                            0x08000169   Thumb Code     0  __rtentry4.o(.ARM.Collect$$rtentry$$00000004)
    __rt_entry_li                            0x0800016f   Thumb Code     0  __rtentry2.o(.ARM.Collect$$rtentry$$0000000A)
    __rt_entry_postsh_1                      0x0800016f   Thumb Code     0  __rtentry2.o(.ARM.Collect$$rtentry$$00000009)
    __rt_entry_main                          0x08000173   Thumb Code     0  __rtentry2.o(.ARM.Collect$$rtentry$$0000000D)
    __rt_entry_postli_1                      0x08000173   Thumb Code     0  __rtentry2.o(.ARM.Collect$$rtentry$$0000000C)
    __rt_exit                                0x0800017b   Thumb Code     0  rtexit.o(.ARM.Collect$$rtexit$$00000000)
    __rt_exit_ls                             0x0800017d   Thumb Code     0  rtexit2.o(.ARM.Collect$$rtexit$$00000003)
    __rt_exit_prels_1                        0x0800017d   Thumb Code     0  rtexit2.o(.ARM.Collect$$rtexit$$00000002)
    __rt_exit_exit                           0x08000181   Thumb Code     0  rtexit2.o(.ARM.Collect$$rtexit$$00000004)
    SVC_Handler                              0x08000189   Thumb Code    32  port.o(.emb_text)
    __asm___6_port_c_39a90d8d__prvStartFirstTask 0x080001ad   Thumb Code    28  port.o(.emb_text)
    PendSV_Handler                           0x080001cd   Thumb Code    64  port.o(.emb_text)
    ulPortSetInterruptMask                   0x08000211   Thumb Code    14  port.o(.emb_text)
    vPortClearInterruptMask                  0x0800021f   Thumb Code     6  port.o(.emb_text)
    vPortGetIPSR                             0x08000225   Thumb Code     6  port.o(.emb_text)
    Reset_Handler                            0x0800022d   Thumb Code     8  startup_stm32f103x6.o(.text)
    ADC1_2_IRQHandler                        0x08000247   Thumb Code     0  startup_stm32f103x6.o(.text)
    CAN1_RX1_IRQHandler                      0x08000247   Thumb Code     0  startup_stm32f103x6.o(.text)
    CAN1_SCE_IRQHandler                      0x08000247   Thumb Code     0  startup_stm32f103x6.o(.text)
    DMA1_Channel1_IRQHandler                 0x08000247   Thumb Code     0  startup_stm32f103x6.o(.text)
    DMA1_Channel2_IRQHandler                 0x08000247   Thumb Code     0  startup_stm32f103x6.o(.text)
    DMA1_Channel5_IRQHandler                 0x08000247   Thumb Code     0  startup_stm32f103x6.o(.text)
    DMA1_Channel6_IRQHandler                 0x08000247   Thumb Code     0  startup_stm32f103x6.o(.text)
    DMA1_Channel7_IRQHandler                 0x08000247   Thumb Code     0  startup_stm32f103x6.o(.text)
    EXTI0_IRQHandler                         0x08000247   Thumb Code     0  startup_stm32f103x6.o(.text)
    EXTI15_10_IRQHandler                     0x08000247   Thumb Code     0  startup_stm32f103x6.o(.text)
    EXTI1_IRQHandler                         0x08000247   Thumb Code     0  startup_stm32f103x6.o(.text)
    EXTI2_IRQHandler                         0x08000247   Thumb Code     0  startup_stm32f103x6.o(.text)
    EXTI3_IRQHandler                         0x08000247   Thumb Code     0  startup_stm32f103x6.o(.text)
    EXTI4_IRQHandler                         0x08000247   Thumb Code     0  startup_stm32f103x6.o(.text)
    EXTI9_5_IRQHandler                       0x08000247   Thumb Code     0  startup_stm32f103x6.o(.text)
    FLASH_IRQHandler                         0x08000247   Thumb Code     0  startup_stm32f103x6.o(.text)
    I2C1_ER_IRQHandler                       0x08000247   Thumb Code     0  startup_stm32f103x6.o(.text)
    I2C1_EV_IRQHandler                       0x08000247   Thumb Code     0  startup_stm32f103x6.o(.text)
    PVD_IRQHandler                           0x08000247   Thumb Code     0  startup_stm32f103x6.o(.text)
    RCC_IRQHandler                           0x08000247   Thumb Code     0  startup_stm32f103x6.o(.text)
    RTC_Alarm_IRQHandler                     0x08000247   Thumb Code     0  startup_stm32f103x6.o(.text)
    RTC_IRQHandler                           0x08000247   Thumb Code     0  startup_stm32f103x6.o(.text)
    SPI1_IRQHandler                          0x08000247   Thumb Code     0  startup_stm32f103x6.o(.text)
    TAMPER_IRQHandler                        0x08000247   Thumb Code     0  startup_stm32f103x6.o(.text)
    TIM1_BRK_IRQHandler                      0x08000247   Thumb Code     0  startup_stm32f103x6.o(.text)
    TIM1_CC_IRQHandler                       0x08000247   Thumb Code     0  startup_stm32f103x6.o(.text)
    TIM1_TRG_COM_IRQHandler                  0x08000247   Thumb Code     0  startup_stm32f103x6.o(.text)
    TIM2_IRQHandler                          0x08000247   Thumb Code     0  startup_stm32f103x6.o(.text)
    TIM3_IRQHandler                          0x08000247   Thumb Code     0  startup_stm32f103x6.o(.text)
    USART2_IRQHandler                        0x08000247   Thumb Code     0  startup_stm32f103x6.o(.text)
    USBWakeUp_IRQHandler                     0x08000247   Thumb Code     0  startup_stm32f103x6.o(.text)
    USB_HP_CAN1_TX_IRQHandler                0x08000247   Thumb Code     0  startup_stm32f103x6.o(.text)
    USB_LP_CAN1_RX0_IRQHandler               0x08000247   Thumb Code     0  startup_stm32f103x6.o(.text)
    WWDG_IRQHandler                          0x08000247   Thumb Code     0  startup_stm32f103x6.o(.text)
    __user_initial_stackheap                 0x08000249   Thumb Code     0  startup_stm32f103x6.o(.text)
    strlen                                   0x0800026d   Thumb Code    62  strlen.o(.text)
    __aeabi_memcpy4                          0x080002ab   Thumb Code     0  rt_memcpy_w.o(.text)
    __aeabi_memcpy8                          0x080002ab   Thumb Code     0  rt_memcpy_w.o(.text)
    __rt_memcpy_w                            0x080002ab   Thumb Code   100  rt_memcpy_w.o(.text)
    _memcpy_lastbytes_aligned                0x080002f3   Thumb Code     0  rt_memcpy_w.o(.text)
    __use_two_region_memory                  0x0800030f   Thumb Code     2  heapauxi.o(.text)
    __rt_heap_escrow$2region                 0x08000311   Thumb Code     2  heapauxi.o(.text)
    __rt_heap_expand$2region                 0x08000313   Thumb Code     2  heapauxi.o(.text)
    __user_setup_stackheap                   0x08000315   Thumb Code    74  sys_stackheap_outer.o(.text)
    exit                                     0x0800035f   Thumb Code    18  exit.o(.text)
    __user_libspace                          0x08000371   Thumb Code     8  libspace.o(.text)
    __user_perproc_libspace                  0x08000371   Thumb Code     0  libspace.o(.text)
    __user_perthread_libspace                0x08000371   Thumb Code     0  libspace.o(.text)
    _sys_exit                                0x08000379   Thumb Code     8  sys_exit.o(.text)
    __I$use$semihosting                      0x08000385   Thumb Code     0  use_no_semi.o(.text)
    __use_no_semihosting_swi                 0x08000385   Thumb Code     2  use_no_semi.o(.text)
    BusFault_Handler                         0x08000387   Thumb Code     4  stm32f1xx_it.o(i.BusFault_Handler)
    __semihosting_library_function           0x08000387   Thumb Code     0  indicate_semi.o(.text)
    DMA1_Channel3_IRQHandler                 0x0800038d   Thumb Code    10  stm32f1xx_it.o(i.DMA1_Channel3_IRQHandler)
    DMA1_Channel4_IRQHandler                 0x0800039d   Thumb Code    10  stm32f1xx_it.o(i.DMA1_Channel4_IRQHandler)
    DebugMon_Handler                         0x080003cd   Thumb Code     2  stm32f1xx_it.o(i.DebugMon_Handler)
    Error_Handler                            0x080003cf   Thumb Code     4  main.o(i.Error_Handler)
    HAL_CRC_Init                             0x080003d3   Thumb Code    32  stm32f1xx_hal_crc.o(i.HAL_CRC_Init)
    HAL_CRC_MspInit                          0x080003f5   Thumb Code    40  stm32f1xx_hal_msp.o(i.HAL_CRC_MspInit)
    HAL_DMA_IRQHandler                       0x08000425   Thumb Code   780  stm32f1xx_hal_dma.o(i.HAL_DMA_IRQHandler)
    HAL_DMA_Init                             0x08000735   Thumb Code    84  stm32f1xx_hal_dma.o(i.HAL_DMA_Init)
    HAL_DMA_Start_IT                         0x08000789   Thumb Code   118  stm32f1xx_hal_dma.o(i.HAL_DMA_Start_IT)
    HAL_Delay                                0x080007ff   Thumb Code    26  stm32f1xx_hal.o(i.HAL_Delay)
    HAL_GPIO_Init                            0x08000819   Thumb Code   748  stm32f1xx_hal_gpio.o(i.HAL_GPIO_Init)
    HAL_GPIO_WritePin                        0x08000b21   Thumb Code    12  stm32f1xx_hal_gpio.o(i.HAL_GPIO_WritePin)
    HAL_GetTick                              0x08000b2d   Thumb Code     6  stm32f1xx_hal.o(i.HAL_GetTick)
    HAL_IncTick                              0x08000b39   Thumb Code    12  stm32f1xx_hal.o(i.HAL_IncTick)
    HAL_Init                                 0x08000b49   Thumb Code    34  stm32f1xx_hal.o(i.HAL_Init)
    HAL_InitTick                             0x08000b71   Thumb Code   118  stm32f1xx_hal_timebase_tim.o(i.HAL_InitTick)
    HAL_MspInit                              0x08000bf9   Thumb Code   130  stm32f1xx_hal_msp.o(i.HAL_MspInit)
    HAL_NVIC_EnableIRQ                       0x08000c85   Thumb Code    26  stm32f1xx_hal_cortex.o(i.HAL_NVIC_EnableIRQ)
    HAL_NVIC_SetPriority                     0x08000c9f   Thumb Code   124  stm32f1xx_hal_cortex.o(i.HAL_NVIC_SetPriority)
    HAL_NVIC_SetPriorityGrouping             0x08000d1d   Thumb Code    32  stm32f1xx_hal_cortex.o(i.HAL_NVIC_SetPriorityGrouping)
    HAL_RCC_ClockConfig                      0x08000d45   Thumb Code   648  stm32f1xx_hal_rcc.o(i.HAL_RCC_ClockConfig)
    HAL_RCC_GetClockConfig                   0x08000fdd   Thumb Code    58  stm32f1xx_hal_rcc.o(i.HAL_RCC_GetClockConfig)
    HAL_RCC_GetHCLKFreq                      0x08001021   Thumb Code     6  stm32f1xx_hal_rcc.o(i.HAL_RCC_GetHCLKFreq)
    HAL_RCC_GetPCLK1Freq                     0x0800102d   Thumb Code    36  stm32f1xx_hal_rcc.o(i.HAL_RCC_GetPCLK1Freq)
    HAL_RCC_GetPCLK2Freq                     0x08001059   Thumb Code    36  stm32f1xx_hal_rcc.o(i.HAL_RCC_GetPCLK2Freq)
    HAL_RCC_GetSysClockFreq                  0x08001085   Thumb Code   146  stm32f1xx_hal_rcc.o(i.HAL_RCC_GetSysClockFreq)
    HAL_RCC_OscConfig                        0x08001139   Thumb Code  2164  stm32f1xx_hal_rcc.o(i.HAL_RCC_OscConfig)
    HAL_SPI_Init                             0x080019b1   Thumb Code   134  stm32f1xx_hal_spi_ex.o(i.HAL_SPI_Init)
    HAL_SPI_MspInit                          0x08001a3d   Thumb Code   116  stm32f1xx_hal_msp.o(i.HAL_SPI_MspInit)
    HAL_SPI_Transmit                         0x08001ac5   Thumb Code   448  stm32f1xx_hal_spi.o(i.HAL_SPI_Transmit)
    HAL_SPI_TransmitReceive                  0x08001c85   Thumb Code   836  stm32f1xx_hal_spi.o(i.HAL_SPI_TransmitReceive)
    HAL_SYSTICK_CLKSourceConfig              0x08001fc9   Thumb Code    40  stm32f1xx_hal_cortex.o(i.HAL_SYSTICK_CLKSourceConfig)
    HAL_SYSTICK_Config                       0x08001ff1   Thumb Code    52  stm32f1xx_hal_cortex.o(i.HAL_SYSTICK_Config)
    HAL_TIMEx_BreakCallback                  0x08002025   Thumb Code     2  stm32f1xx_hal_tim_ex.o(i.HAL_TIMEx_BreakCallback)
    HAL_TIMEx_CommutationCallback            0x08002027   Thumb Code     2  stm32f1xx_hal_tim_ex.o(i.HAL_TIMEx_CommutationCallback)
    HAL_TIM_Base_Init                        0x08002029   Thumb Code    52  stm32f1xx_hal_tim.o(i.HAL_TIM_Base_Init)
    HAL_TIM_Base_MspInit                     0x0800205d   Thumb Code     2  stm32f1xx_hal_tim.o(i.HAL_TIM_Base_MspInit)
    HAL_TIM_Base_Start_IT                    0x0800205f   Thumb Code    30  stm32f1xx_hal_tim.o(i.HAL_TIM_Base_Start_IT)
    HAL_TIM_IC_CaptureCallback               0x0800207d   Thumb Code     2  stm32f1xx_hal_tim.o(i.HAL_TIM_IC_CaptureCallback)
    HAL_TIM_IRQHandler                       0x0800207f   Thumb Code   406  stm32f1xx_hal_tim.o(i.HAL_TIM_IRQHandler)
    HAL_TIM_OC_DelayElapsedCallback          0x08002215   Thumb Code     2  stm32f1xx_hal_tim.o(i.HAL_TIM_OC_DelayElapsedCallback)
    HAL_TIM_PWM_PulseFinishedCallback        0x08002217   Thumb Code     2  stm32f1xx_hal_tim.o(i.HAL_TIM_PWM_PulseFinishedCallback)
    HAL_TIM_PeriodElapsedCallback            0x08002219   Thumb Code   176  main.o(i.HAL_TIM_PeriodElapsedCallback)
    HAL_TIM_TriggerCallback                  0x080022e5   Thumb Code     2  stm32f1xx_hal_tim.o(i.HAL_TIM_TriggerCallback)
    HAL_UART_ErrorCallback                   0x080022e7   Thumb Code     2  stm32f1xx_hal_uart.o(i.HAL_UART_ErrorCallback)
    HAL_UART_IRQHandler                      0x080022e9   Thumb Code   218  stm32f1xx_hal_uart.o(i.HAL_UART_IRQHandler)
    HAL_UART_Init                            0x080023c3   Thumb Code   110  stm32f1xx_hal_uart.o(i.HAL_UART_Init)
    HAL_UART_MspInit                         0x08002431   Thumb Code   156  stm32f1xx_hal_msp.o(i.HAL_UART_MspInit)
    HAL_UART_Receive                         0x080024e1   Thumb Code   248  stm32f1xx_hal_uart.o(i.HAL_UART_Receive)
    HAL_UART_RxCpltCallback                  0x080025d9   Thumb Code     2  stm32f1xx_hal_uart.o(i.HAL_UART_RxCpltCallback)
    HAL_UART_Transmit_DMA                    0x080025dd   Thumb Code   156  stm32f1xx_hal_uart.o(i.HAL_UART_Transmit_DMA)
    HAL_UART_TxCpltCallback                  0x08002685   Thumb Code     2  stm32f1xx_hal_uart.o(i.HAL_UART_TxCpltCallback)
    HAL_UART_TxHalfCpltCallback              0x08002687   Thumb Code     2  stm32f1xx_hal_uart.o(i.HAL_UART_TxHalfCpltCallback)
    HardFault_Handler                        0x08002689   Thumb Code     4  stm32f1xx_it.o(i.HardFault_Handler)
    LCD_setcol                               0x0800268d   Thumb Code    90  tft.o(i.LCD_setcol)
    LCD_setpage                              0x080026ed   Thumb Code    90  tft.o(i.LCD_setpage)
    LCD_setpixel                             0x0800274d   Thumb Code   106  tft.o(i.LCD_setpixel)
    MemManage_Handler                        0x080029ad   Thumb Code     4  stm32f1xx_it.o(i.MemManage_Handler)
    NMI_Handler                              0x080029b1   Thumb Code     2  stm32f1xx_it.o(i.NMI_Handler)
    ST7735_FillRectangle                     0x08002b01   Thumb Code   176  st7735.o(i.ST7735_FillRectangle)
    ST7735_FillScreen                        0x08002bb9   Thumb Code    20  st7735.o(i.ST7735_FillScreen)
    ST7735_WriteCommand                      0x08002c21   Thumb Code    30  st7735.o(i.ST7735_WriteCommand)
    SysTick_Handler                          0x08002c71   Thumb Code     8  stm32f1xx_it.o(i.SysTick_Handler)
    SystemClock_Config                       0x08002c79   Thumb Code   116  main.o(i.SystemClock_Config)
    SystemInit                               0x08002ced   Thumb Code    70  system_stm32f1xx.o(i.SystemInit)
    TIM1_UP_IRQHandler                       0x08002d45   Thumb Code    10  stm32f1xx_it.o(i.TIM1_UP_IRQHandler)
    TIM_Base_SetConfig                       0x08002d55   Thumb Code    82  stm32f1xx_hal_tim.o(i.TIM_Base_SetConfig)
    TaskClock                                0x08002db1   Thumb Code   822  main.o(i.TaskClock)
    USART1_IRQHandler                        0x08003601   Thumb Code    10  stm32f1xx_it.o(i.USART1_IRQHandler)
    UsageFault_Handler                       0x08003611   Thumb Code     4  stm32f1xx_it.o(i.UsageFault_Handler)
    fn_fontdraw_8x5                          0x08003615   Thumb Code    86  gfx.o(i.fn_fontdraw_8x5)
    get_text_size                            0x08003671   Thumb Code    66  gfx.o(i.get_text_size)
    init_display_context                     0x080036b5   Thumb Code    34  gfx.o(i.init_display_context)
    is_valid                                 0x080036dd   Thumb Code    34  gfx.o(i.is_valid)
    itoa                                     0x080036ff   Thumb Code   108  main.o(i.itoa)
    line                                     0x0800376b   Thumb Code   142  gfx.o(i.line)
    main                                     0x080037f9   Thumb Code    82  main.o(i.main)
    osKernelStart                            0x0800386b   Thumb Code    10  cmsis_os.o(i.osKernelStart)
    osSystickHandler                         0x08003875   Thumb Code    16  cmsis_os.o(i.osSystickHandler)
    osThreadCreate                           0x08003885   Thumb Code    58  cmsis_os.o(i.osThreadCreate)
    print_string                             0x080038c1   Thumb Code    30  main.o(i.print_string)
    putchar_tft                              0x08003bb5   Thumb Code    94  gfx.o(i.putchar_tft)
    pvPortMalloc                             0x08003c15   Thumb Code   254  heap_4.o(i.pvPortMalloc)
    pxPortInitialiseStack                    0x08003d29   Thumb Code    26  port.o(i.pxPortInitialiseStack)
    text                                     0x08003d49   Thumb Code    62  gfx.o(i.text)
    tft_init                                 0x08003d89   Thumb Code   220  tft.o(i.tft_init)
    transfer_locked                          0x08003e69   Thumb Code    30  tft.o(i.transfer_locked)
    uxListRemove                             0x08003e8d   Thumb Code    40  list.o(i.uxListRemove)
    vListInitialise                          0x08003eb5   Thumb Code    26  list.o(i.vListInitialise)
    vListInitialiseItem                      0x08003ecf   Thumb Code     6  list.o(i.vListInitialiseItem)
    vListInsertEnd                           0x08003ed5   Thumb Code    24  list.o(i.vListInsertEnd)
    vPortEnterCritical                       0x08003eed   Thumb Code    58  port.o(i.vPortEnterCritical)
    vPortExitCritical                        0x08003f31   Thumb Code    40  port.o(i.vPortExitCritical)
    vPortFree                                0x08003f5d   Thumb Code   112  heap_4.o(i.vPortFree)
    vPortSetupTimerInterrupt                 0x08003fd5   Thumb Code    26  port.o(i.vPortSetupTimerInterrupt)
    vPortYield                               0x08003ff5   Thumb Code    18  port.o(i.vPortYield)
    vTaskStartScheduler                      0x0800400d   Thumb Code    70  tasks.o(i.vTaskStartScheduler)
    vTaskSuspendAll                          0x0800406d   Thumb Code    12  tasks.o(i.vTaskSuspendAll)
    vTaskSwitchContext                       0x0800407d   Thumb Code   106  tasks.o(i.vTaskSwitchContext)
    xPortStartScheduler                      0x080040fd   Thumb Code   140  port.o(i.xPortStartScheduler)
    xPortSysTickHandler                      0x0800419d   Thumb Code    28  port.o(i.xPortSysTickHandler)
    xTaskGenericCreate                       0x080041bd   Thumb Code   282  tasks.o(i.xTaskGenericCreate)
    xTaskGetSchedulerState                   0x080042f1   Thumb Code    24  tasks.o(i.xTaskGetSchedulerState)
    xTaskIncrementTick                       0x08004311   Thumb Code   272  tasks.o(i.xTaskIncrementTick)
    xTaskResumeAll                           0x0800444d   Thumb Code   200  tasks.o(i.xTaskResumeAll)
    AHBPrescTable                            0x08004534   Data          16  system_stm32f1xx.o(.constdata)
    APBPrescTable                            0x08004544   Data           8  system_stm32f1xx.o(.constdata)
    Region$$Table$$Base                      0x08004750   Number         0  anon$$obj.o(Region$$Table)
    Region$$Table$$Limit                     0x08004770   Number         0  anon$$obj.o(Region$$Table)
    SystemCoreClock                          0x20000000   Data           4  system_stm32f1xx.o(.data)
    uCRCErrorWorkaroundCheck                 0x20000008   Data           1  stm32f1xx_hal_spi_ex.o(.data)
    pxCurrentTCB                             0x2000000c   Data           4  tasks.o(.data)
    hcrc                                     0x20000068   Data           8  main.o(.data)
    ClockPrinterHandle                       0x20000070   Data           4  main.o(.data)
    font_8x5                                 0x2000007c   Data           8  gfx.o(.data)
    hspi1                                    0x20000d74   Data          88  main.o(.bss)
    hdma_spi1_tx                             0x20000dcc   Data          56  main.o(.bss)
    huart1                                   0x20000e04   Data          64  main.o(.bss)
    hdma_usart1_tx                           0x20000e44   Data          56  main.o(.bss)
    htim1                                    0x20000e94   Data          60  stm32f1xx_hal_timebase_tim.o(.bss)
    __libspace_start                         0x20000ed0   Data          96  libspace.o(.bss)
    __temporary_stack_top$libspace           0x20000f30   Data           0  libspace.o(.bss)



==============================================================================

Memory Map of the image

  Image Entry point : 0x080000ed

  Load Region LR_IROM1 (Base: 0x08000000, Size: 0x000047f4, Max: 0x00008000, ABSOLUTE)

    Execution Region ER_IROM1 (Exec base: 0x08000000, Load base: 0x08000000, Size: 0x00004770, Max: 0x00008000, ABSOLUTE)

    Exec Addr    Load Addr    Size         Type   Attr      Idx    E Section Name        Object

    0x08000000   0x08000000   0x000000ec   Data   RO            3    RESET               startup_stm32f103x6.o
    0x080000ec   0x080000ec   0x00000008   Code   RO         4326  * !!!main             c_w.l(__main.o)
    0x080000f4   0x080000f4   0x00000034   Code   RO         4487    !!!scatter          c_w.l(__scatter.o)
    0x08000128   0x08000128   0x0000001a   Code   RO         4489    !!handler_copy      c_w.l(__scatter_copy.o)
    0x08000142   0x08000142   0x00000002   PAD
    0x08000144   0x08000144   0x0000001c   Code   RO         4491    !!handler_zi        c_w.l(__scatter_zi.o)
    0x08000160   0x08000160   0x00000002   Code   RO         4357    .ARM.Collect$$libinit$$00000000  c_w.l(libinit.o)
    0x08000162   0x08000162   0x00000000   Code   RO         4364    .ARM.Collect$$libinit$$00000002  c_w.l(libinit2.o)
    0x08000162   0x08000162   0x00000000   Code   RO         4366    .ARM.Collect$$libinit$$00000004  c_w.l(libinit2.o)
    0x08000162   0x08000162   0x00000000   Code   RO         4369    .ARM.Collect$$libinit$$0000000A  c_w.l(libinit2.o)
    0x08000162   0x08000162   0x00000000   Code   RO         4371    .ARM.Collect$$libinit$$0000000C  c_w.l(libinit2.o)
    0x08000162   0x08000162   0x00000000   Code   RO         4373    .ARM.Collect$$libinit$$0000000E  c_w.l(libinit2.o)
    0x08000162   0x08000162   0x00000000   Code   RO         4376    .ARM.Collect$$libinit$$00000011  c_w.l(libinit2.o)
    0x08000162   0x08000162   0x00000000   Code   RO         4378    .ARM.Collect$$libinit$$00000013  c_w.l(libinit2.o)
    0x08000162   0x08000162   0x00000000   Code   RO         4380    .ARM.Collect$$libinit$$00000015  c_w.l(libinit2.o)
    0x08000162   0x08000162   0x00000000   Code   RO         4382    .ARM.Collect$$libinit$$00000017  c_w.l(libinit2.o)
    0x08000162   0x08000162   0x00000000   Code   RO         4384    .ARM.Collect$$libinit$$00000019  c_w.l(libinit2.o)
    0x08000162   0x08000162   0x00000000   Code   RO         4386    .ARM.Collect$$libinit$$0000001B  c_w.l(libinit2.o)
    0x08000162   0x08000162   0x00000000   Code   RO         4388    .ARM.Collect$$libinit$$0000001D  c_w.l(libinit2.o)
    0x08000162   0x08000162   0x00000000   Code   RO         4390    .ARM.Collect$$libinit$$0000001F  c_w.l(libinit2.o)
    0x08000162   0x08000162   0x00000000   Code   RO         4392    .ARM.Collect$$libinit$$00000021  c_w.l(libinit2.o)
    0x08000162   0x08000162   0x00000000   Code   RO         4394    .ARM.Collect$$libinit$$00000023  c_w.l(libinit2.o)
    0x08000162   0x08000162   0x00000000   Code   RO         4396    .ARM.Collect$$libinit$$00000025  c_w.l(libinit2.o)
    0x08000162   0x08000162   0x00000000   Code   RO         4400    .ARM.Collect$$libinit$$0000002C  c_w.l(libinit2.o)
    0x08000162   0x08000162   0x00000000   Code   RO         4402    .ARM.Collect$$libinit$$0000002E  c_w.l(libinit2.o)
    0x08000162   0x08000162   0x00000000   Code   RO         4404    .ARM.Collect$$libinit$$00000030  c_w.l(libinit2.o)
    0x08000162   0x08000162   0x00000000   Code   RO         4406    .ARM.Collect$$libinit$$00000032  c_w.l(libinit2.o)
    0x08000162   0x08000162   0x00000002   Code   RO         4407    .ARM.Collect$$libinit$$00000033  c_w.l(libinit2.o)
    0x08000164   0x08000164   0x00000002   Code   RO         4427    .ARM.Collect$$libshutdown$$00000000  c_w.l(libshutdown.o)
    0x08000166   0x08000166   0x00000000   Code   RO         4440    .ARM.Collect$$libshutdown$$00000002  c_w.l(libshutdown2.o)
    0x08000166   0x08000166   0x00000000   Code   RO         4442    .ARM.Collect$$libshutdown$$00000004  c_w.l(libshutdown2.o)
    0x08000166   0x08000166   0x00000000   Code   RO         4445    .ARM.Collect$$libshutdown$$00000007  c_w.l(libshutdown2.o)
    0x08000166   0x08000166   0x00000000   Code   RO         4448    .ARM.Collect$$libshutdown$$0000000A  c_w.l(libshutdown2.o)
    0x08000166   0x08000166   0x00000000   Code   RO         4450    .ARM.Collect$$libshutdown$$0000000C  c_w.l(libshutdown2.o)
    0x08000166   0x08000166   0x00000000   Code   RO         4453    .ARM.Collect$$libshutdown$$0000000F  c_w.l(libshutdown2.o)
    0x08000166   0x08000166   0x00000002   Code   RO         4454    .ARM.Collect$$libshutdown$$00000010  c_w.l(libshutdown2.o)
    0x08000168   0x08000168   0x00000000   Code   RO         4328    .ARM.Collect$$rtentry$$00000000  c_w.l(__rtentry.o)
    0x08000168   0x08000168   0x00000000   Code   RO         4332    .ARM.Collect$$rtentry$$00000002  c_w.l(__rtentry2.o)
    0x08000168   0x08000168   0x00000006   Code   RO         4344    .ARM.Collect$$rtentry$$00000004  c_w.l(__rtentry4.o)
    0x0800016e   0x0800016e   0x00000000   Code   RO         4334    .ARM.Collect$$rtentry$$00000009  c_w.l(__rtentry2.o)
    0x0800016e   0x0800016e   0x00000004   Code   RO         4335    .ARM.Collect$$rtentry$$0000000A  c_w.l(__rtentry2.o)
    0x08000172   0x08000172   0x00000000   Code   RO         4337    .ARM.Collect$$rtentry$$0000000C  c_w.l(__rtentry2.o)
    0x08000172   0x08000172   0x00000008   Code   RO         4338    .ARM.Collect$$rtentry$$0000000D  c_w.l(__rtentry2.o)
    0x0800017a   0x0800017a   0x00000002   Code   RO         4361    .ARM.Collect$$rtexit$$00000000  c_w.l(rtexit.o)
    0x0800017c   0x0800017c   0x00000000   Code   RO         4409    .ARM.Collect$$rtexit$$00000002  c_w.l(rtexit2.o)
    0x0800017c   0x0800017c   0x00000004   Code   RO         4410    .ARM.Collect$$rtexit$$00000003  c_w.l(rtexit2.o)
    0x08000180   0x08000180   0x00000006   Code   RO         4411    .ARM.Collect$$rtexit$$00000004  c_w.l(rtexit2.o)
    0x08000186   0x08000186   0x00000002   PAD
    0x08000188   0x08000188   0x000000a2   Code   RO         3173    .emb_text           port.o
    0x0800022a   0x0800022a   0x00000002   PAD
    0x0800022c   0x0800022c   0x00000040   Code   RO            4    .text               startup_stm32f103x6.o
    0x0800026c   0x0800026c   0x0000003e   Code   RO         4316    .text               c_w.l(strlen.o)
    0x080002aa   0x080002aa   0x00000064   Code   RO         4320    .text               c_w.l(rt_memcpy_w.o)
    0x0800030e   0x0800030e   0x00000006   Code   RO         4324    .text               c_w.l(heapauxi.o)
    0x08000314   0x08000314   0x0000004a   Code   RO         4348    .text               c_w.l(sys_stackheap_outer.o)
    0x0800035e   0x0800035e   0x00000012   Code   RO         4350    .text               c_w.l(exit.o)
    0x08000370   0x08000370   0x00000008   Code   RO         4358    .text               c_w.l(libspace.o)
    0x08000378   0x08000378   0x0000000c   Code   RO         4419    .text               c_w.l(sys_exit.o)
    0x08000384   0x08000384   0x00000002   Code   RO         4430    .text               c_w.l(use_no_semi.o)
    0x08000386   0x08000386   0x00000000   Code   RO         4432    .text               c_w.l(indicate_semi.o)
    0x08000386   0x08000386   0x00000004   Code   RO         3857    i.BusFault_Handler  stm32f1xx_it.o
    0x0800038a   0x0800038a   0x00000002   PAD
    0x0800038c   0x0800038c   0x00000010   Code   RO         3858    i.DMA1_Channel3_IRQHandler  stm32f1xx_it.o
    0x0800039c   0x0800039c   0x00000010   Code   RO         3859    i.DMA1_Channel4_IRQHandler  stm32f1xx_it.o
    0x080003ac   0x080003ac   0x00000020   Code   RO          457    i.DMA_SetConfig     stm32f1xx_hal_dma.o
    0x080003cc   0x080003cc   0x00000002   Code   RO         3860    i.DebugMon_Handler  stm32f1xx_it.o
    0x080003ce   0x080003ce   0x00000004   Code   RO         3631    i.Error_Handler     main.o
    0x080003d2   0x080003d2   0x00000020   Code   RO          401    i.HAL_CRC_Init      stm32f1xx_hal_crc.o
    0x080003f2   0x080003f2   0x00000002   PAD
    0x080003f4   0x080003f4   0x00000030   Code   RO         3757    i.HAL_CRC_MspInit   stm32f1xx_hal_msp.o
    0x08000424   0x08000424   0x00000310   Code   RO          462    i.HAL_DMA_IRQHandler  stm32f1xx_hal_dma.o
    0x08000734   0x08000734   0x00000054   Code   RO          463    i.HAL_DMA_Init      stm32f1xx_hal_dma.o
    0x08000788   0x08000788   0x00000076   Code   RO          466    i.HAL_DMA_Start_IT  stm32f1xx_hal_dma.o
    0x080007fe   0x080007fe   0x0000001a   Code   RO           80    i.HAL_Delay         stm32f1xx_hal.o
    0x08000818   0x08000818   0x00000308   Code   RO          746    i.HAL_GPIO_Init     stm32f1xx_hal_gpio.o
    0x08000b20   0x08000b20   0x0000000c   Code   RO          750    i.HAL_GPIO_WritePin  stm32f1xx_hal_gpio.o
    0x08000b2c   0x08000b2c   0x0000000c   Code   RO           84    i.HAL_GetTick       stm32f1xx_hal.o
    0x08000b38   0x08000b38   0x00000010   Code   RO           85    i.HAL_IncTick       stm32f1xx_hal.o
    0x08000b48   0x08000b48   0x00000028   Code   RO           86    i.HAL_Init          stm32f1xx_hal.o
    0x08000b70   0x08000b70   0x00000088   Code   RO         3817    i.HAL_InitTick      stm32f1xx_hal_timebase_tim.o
    0x08000bf8   0x08000bf8   0x0000008c   Code   RO         3758    i.HAL_MspInit       stm32f1xx_hal_msp.o
    0x08000c84   0x08000c84   0x0000001a   Code   RO          277    i.HAL_NVIC_EnableIRQ  stm32f1xx_hal_cortex.o
    0x08000c9e   0x08000c9e   0x0000007c   Code   RO          283    i.HAL_NVIC_SetPriority  stm32f1xx_hal_cortex.o
    0x08000d1a   0x08000d1a   0x00000002   PAD
    0x08000d1c   0x08000d1c   0x00000028   Code   RO          284    i.HAL_NVIC_SetPriorityGrouping  stm32f1xx_hal_cortex.o
    0x08000d44   0x08000d44   0x00000298   Code   RO          971    i.HAL_RCC_ClockConfig  stm32f1xx_hal_rcc.o
    0x08000fdc   0x08000fdc   0x00000044   Code   RO          975    i.HAL_RCC_GetClockConfig  stm32f1xx_hal_rcc.o
    0x08001020   0x08001020   0x0000000c   Code   RO          976    i.HAL_RCC_GetHCLKFreq  stm32f1xx_hal_rcc.o
    0x0800102c   0x0800102c   0x0000002c   Code   RO          978    i.HAL_RCC_GetPCLK1Freq  stm32f1xx_hal_rcc.o
    0x08001058   0x08001058   0x0000002c   Code   RO          979    i.HAL_RCC_GetPCLK2Freq  stm32f1xx_hal_rcc.o
    0x08001084   0x08001084   0x000000b4   Code   RO          980    i.HAL_RCC_GetSysClockFreq  stm32f1xx_hal_rcc.o
    0x08001138   0x08001138   0x00000878   Code   RO          983    i.HAL_RCC_OscConfig  stm32f1xx_hal_rcc.o
    0x080019b0   0x080019b0   0x0000008c   Code   RO         1353    i.HAL_SPI_Init      stm32f1xx_hal_spi_ex.o
    0x08001a3c   0x08001a3c   0x00000088   Code   RO         3760    i.HAL_SPI_MspInit   stm32f1xx_hal_msp.o
    0x08001ac4   0x08001ac4   0x000001c0   Code   RO         1124    i.HAL_SPI_Transmit  stm32f1xx_hal_spi.o
    0x08001c84   0x08001c84   0x00000344   Code   RO         1125    i.HAL_SPI_TransmitReceive  stm32f1xx_hal_spi.o
    0x08001fc8   0x08001fc8   0x00000028   Code   RO          286    i.HAL_SYSTICK_CLKSourceConfig  stm32f1xx_hal_cortex.o
    0x08001ff0   0x08001ff0   0x00000034   Code   RO          288    i.HAL_SYSTICK_Config  stm32f1xx_hal_cortex.o
    0x08002024   0x08002024   0x00000002   Code   RO         2027    i.HAL_TIMEx_BreakCallback  stm32f1xx_hal_tim_ex.o
    0x08002026   0x08002026   0x00000002   Code   RO         2028    i.HAL_TIMEx_CommutationCallback  stm32f1xx_hal_tim_ex.o
    0x08002028   0x08002028   0x00000034   Code   RO         1388    i.HAL_TIM_Base_Init  stm32f1xx_hal_tim.o
    0x0800205c   0x0800205c   0x00000002   Code   RO         1390    i.HAL_TIM_Base_MspInit  stm32f1xx_hal_tim.o
    0x0800205e   0x0800205e   0x0000001e   Code   RO         1393    i.HAL_TIM_Base_Start_IT  stm32f1xx_hal_tim.o
    0x0800207c   0x0800207c   0x00000002   Code   RO         1417    i.HAL_TIM_IC_CaptureCallback  stm32f1xx_hal_tim.o
    0x0800207e   0x0800207e   0x00000196   Code   RO         1430    i.HAL_TIM_IRQHandler  stm32f1xx_hal_tim.o
    0x08002214   0x08002214   0x00000002   Code   RO         1433    i.HAL_TIM_OC_DelayElapsedCallback  stm32f1xx_hal_tim.o
    0x08002216   0x08002216   0x00000002   Code   RO         1460    i.HAL_TIM_PWM_PulseFinishedCallback  stm32f1xx_hal_tim.o
    0x08002218   0x08002218   0x000000cc   Code   RO         3632    i.HAL_TIM_PeriodElapsedCallback  main.o
    0x080022e4   0x080022e4   0x00000002   Code   RO         1471    i.HAL_TIM_TriggerCallback  stm32f1xx_hal_tim.o
    0x080022e6   0x080022e6   0x00000002   Code   RO         2272    i.HAL_UART_ErrorCallback  stm32f1xx_hal_uart.o
    0x080022e8   0x080022e8   0x000000da   Code   RO         2275    i.HAL_UART_IRQHandler  stm32f1xx_hal_uart.o
    0x080023c2   0x080023c2   0x0000006e   Code   RO         2276    i.HAL_UART_Init     stm32f1xx_hal_uart.o
    0x08002430   0x08002430   0x000000b0   Code   RO         3762    i.HAL_UART_MspInit  stm32f1xx_hal_msp.o
    0x080024e0   0x080024e0   0x000000f8   Code   RO         2279    i.HAL_UART_Receive  stm32f1xx_hal_uart.o
    0x080025d8   0x080025d8   0x00000002   Code   RO         2282    i.HAL_UART_RxCpltCallback  stm32f1xx_hal_uart.o
    0x080025da   0x080025da   0x00000002   PAD
    0x080025dc   0x080025dc   0x000000a8   Code   RO         2285    i.HAL_UART_Transmit_DMA  stm32f1xx_hal_uart.o
    0x08002684   0x08002684   0x00000002   Code   RO         2287    i.HAL_UART_TxCpltCallback  stm32f1xx_hal_uart.o
    0x08002686   0x08002686   0x00000002   Code   RO         2288    i.HAL_UART_TxHalfCpltCallback  stm32f1xx_hal_uart.o
    0x08002688   0x08002688   0x00000004   Code   RO         3861    i.HardFault_Handler  stm32f1xx_it.o
    0x0800268c   0x0800268c   0x00000060   Code   RO         3945    i.LCD_setcol        tft.o
    0x080026ec   0x080026ec   0x00000060   Code   RO         3946    i.LCD_setpage       tft.o
    0x0800274c   0x0800274c   0x00000070   Code   RO         3947    i.LCD_setpixel      tft.o
    0x080027bc   0x080027bc   0x00000020   Code   RO         3633    i.MX_CRC_Init       main.o
    0x080027dc   0x080027dc   0x00000044   Code   RO         3634    i.MX_DMA_Init       main.o
    0x08002820   0x08002820   0x00000110   Code   RO         3635    i.MX_GPIO_Init      main.o
    0x08002930   0x08002930   0x00000044   Code   RO         3636    i.MX_SPI1_Init      main.o
    0x08002974   0x08002974   0x00000038   Code   RO         3637    i.MX_USART1_UART_Init  main.o
    0x080029ac   0x080029ac   0x00000004   Code   RO         3862    i.MemManage_Handler  stm32f1xx_it.o
    0x080029b0   0x080029b0   0x00000002   Code   RO         3863    i.NMI_Handler       stm32f1xx_it.o
    0x080029b2   0x080029b2   0x00000002   PAD
    0x080029b4   0x080029b4   0x00000010   Code   RO          290    i.NVIC_GetPriorityGrouping  stm32f1xx_hal_cortex.o
    0x080029c4   0x080029c4   0x00000028   Code   RO          291    i.NVIC_SetPriority  stm32f1xx_hal_cortex.o
    0x080029ec   0x080029ec   0x00000114   Code   RO         1147    i.SPI_WaitOnFlagUntilTimeout  stm32f1xx_hal_spi.o
    0x08002b00   0x08002b00   0x000000b8   Code   RO         2504    i.ST7735_FillRectangle  st7735.o
    0x08002bb8   0x08002bb8   0x00000014   Code   RO         2505    i.ST7735_FillScreen  st7735.o
    0x08002bcc   0x08002bcc   0x00000052   Code   RO         2508    i.ST7735_SetAddressWindow  st7735.o
    0x08002c1e   0x08002c1e   0x00000002   PAD
    0x08002c20   0x08002c20   0x00000028   Code   RO         2509    i.ST7735_WriteCommand  st7735.o
    0x08002c48   0x08002c48   0x00000028   Code   RO         2510    i.ST7735_WriteData  st7735.o
    0x08002c70   0x08002c70   0x00000008   Code   RO         3864    i.SysTick_Handler   stm32f1xx_it.o
    0x08002c78   0x08002c78   0x00000074   Code   RO         3638    i.SystemClock_Config  main.o
    0x08002cec   0x08002cec   0x00000058   Code   RO           14    i.SystemInit        system_stm32f1xx.o
    0x08002d44   0x08002d44   0x00000010   Code   RO         3865    i.TIM1_UP_IRQHandler  stm32f1xx_it.o
    0x08002d54   0x08002d54   0x0000005c   Code   RO         1472    i.TIM_Base_SetConfig  stm32f1xx_hal_tim.o
    0x08002db0   0x08002db0   0x000003c8   Code   RO         3639    i.TaskClock         main.o
    0x08003178   0x08003178   0x00000022   Code   RO         2289    i.UART_DMAError     stm32f1xx_hal_uart.o
    0x0800319a   0x0800319a   0x00000036   Code   RO         2292    i.UART_DMATransmitCplt  stm32f1xx_hal_uart.o
    0x080031d0   0x080031d0   0x0000000e   Code   RO         2293    i.UART_DMATxHalfCplt  stm32f1xx_hal_uart.o
    0x080031de   0x080031de   0x00000030   Code   RO         2294    i.UART_EndTransmit_IT  stm32f1xx_hal_uart.o
    0x0800320e   0x0800320e   0x000000bc   Code   RO         2295    i.UART_Receive_IT   stm32f1xx_hal_uart.o
    0x080032ca   0x080032ca   0x00000002   PAD
    0x080032cc   0x080032cc   0x000001c8   Code   RO         2296    i.UART_SetConfig    stm32f1xx_hal_uart.o
    0x08003494   0x08003494   0x00000070   Code   RO         2297    i.UART_Transmit_IT  stm32f1xx_hal_uart.o
    0x08003504   0x08003504   0x000000fa   Code   RO         2298    i.UART_WaitOnFlagUntilTimeout  stm32f1xx_hal_uart.o
    0x080035fe   0x080035fe   0x00000002   PAD
    0x08003600   0x08003600   0x00000010   Code   RO         3866    i.USART1_IRQHandler  stm32f1xx_it.o
    0x08003610   0x08003610   0x00000004   Code   RO         3867    i.UsageFault_Handler  stm32f1xx_it.o
    0x08003614   0x08003614   0x0000005c   Code   RO         4028    i.fn_fontdraw_8x5   gfx.o
    0x08003670   0x08003670   0x00000042   Code   RO         4029    i.get_text_size     gfx.o
    0x080036b2   0x080036b2   0x00000002   PAD
    0x080036b4   0x080036b4   0x00000028   Code   RO         4030    i.init_display_context  gfx.o
    0x080036dc   0x080036dc   0x00000022   Code   RO         4031    i.is_valid          gfx.o
    0x080036fe   0x080036fe   0x0000006c   Code   RO         3640    i.itoa              main.o
    0x0800376a   0x0800376a   0x0000008e   Code   RO         4032    i.line              gfx.o
    0x080037f8   0x080037f8   0x00000064   Code   RO         3641    i.main              main.o
    0x0800385c   0x0800385c   0x0000000e   Code   RO         3248    i.makeFreeRtosPriority  cmsis_os.o
    0x0800386a   0x0800386a   0x0000000a   Code   RO         3252    i.osKernelStart     cmsis_os.o
    0x08003874   0x08003874   0x00000010   Code   RO         3281    i.osSystickHandler  cmsis_os.o
    0x08003884   0x08003884   0x0000003a   Code   RO         3282    i.osThreadCreate    cmsis_os.o
    0x080038be   0x080038be   0x00000002   PAD
    0x080038c0   0x080038c0   0x00000024   Code   RO         3642    i.print_string      main.o
    0x080038e4   0x080038e4   0x00000036   Code   RO         2888    i.prvAllocateTCBAndStack  tasks.o
    0x0800391a   0x0800391a   0x00000002   PAD
    0x0800391c   0x0800391c   0x00000064   Code   RO         2889    i.prvCheckTasksWaitingTermination  tasks.o
    0x08003980   0x08003980   0x00000012   Code   RO         2890    i.prvDeleteTCB      tasks.o
    0x08003992   0x08003992   0x00000002   PAD
    0x08003994   0x08003994   0x0000007c   Code   RO         3579    i.prvHeapInit       heap_4.o
    0x08003a10   0x08003a10   0x00000018   Code   RO         2891    i.prvIdleTask       tasks.o
    0x08003a28   0x08003a28   0x00000062   Code   RO         2892    i.prvInitialiseTCBVariables  tasks.o
    0x08003a8a   0x08003a8a   0x00000002   PAD
    0x08003a8c   0x08003a8c   0x00000068   Code   RO         2893    i.prvInitialiseTaskLists  tasks.o
    0x08003af4   0x08003af4   0x00000068   Code   RO         3580    i.prvInsertBlockIntoFreeList  heap_4.o
    0x08003b5c   0x08003b5c   0x00000034   Code   RO         2894    i.prvResetNextTaskUnblockTime  tasks.o
    0x08003b90   0x08003b90   0x00000024   Code   RO         3174    i.prvTaskExitError  port.o
    0x08003bb4   0x08003bb4   0x0000005e   Code   RO         4033    i.putchar_tft       gfx.o
    0x08003c12   0x08003c12   0x00000002   PAD
    0x08003c14   0x08003c14   0x00000114   Code   RO         3581    i.pvPortMalloc      heap_4.o
    0x08003d28   0x08003d28   0x00000020   Code   RO         3175    i.pxPortInitialiseStack  port.o
    0x08003d48   0x08003d48   0x0000003e   Code   RO         4035    i.text              gfx.o
    0x08003d86   0x08003d86   0x00000002   PAD
    0x08003d88   0x08003d88   0x000000e0   Code   RO         3950    i.tft_init          tft.o
    0x08003e68   0x08003e68   0x00000024   Code   RO         3952    i.transfer_locked   tft.o
    0x08003e8c   0x08003e8c   0x00000028   Code   RO         2709    i.uxListRemove      list.o
    0x08003eb4   0x08003eb4   0x0000001a   Code   RO         2710    i.vListInitialise   list.o
    0x08003ece   0x08003ece   0x00000006   Code   RO         2711    i.vListInitialiseItem  list.o
    0x08003ed4   0x08003ed4   0x00000018   Code   RO         2713    i.vListInsertEnd    list.o
    0x08003eec   0x08003eec   0x00000044   Code   RO         3177    i.vPortEnterCritical  port.o
    0x08003f30   0x08003f30   0x0000002c   Code   RO         3178    i.vPortExitCritical  port.o
    0x08003f5c   0x08003f5c   0x00000078   Code   RO         3582    i.vPortFree         heap_4.o
    0x08003fd4   0x08003fd4   0x00000020   Code   RO         3179    i.vPortSetupTimerInterrupt  port.o
    0x08003ff4   0x08003ff4   0x00000018   Code   RO         3181    i.vPortYield        port.o
    0x0800400c   0x0800400c   0x00000060   Code   RO         2913    i.vTaskStartScheduler  tasks.o
    0x0800406c   0x0800406c   0x00000010   Code   RO         2915    i.vTaskSuspendAll   tasks.o
    0x0800407c   0x0800407c   0x00000080   Code   RO         2916    i.vTaskSwitchContext  tasks.o
    0x080040fc   0x080040fc   0x000000a0   Code   RO         3182    i.xPortStartScheduler  port.o
    0x0800419c   0x0800419c   0x00000020   Code   RO         3183    i.xPortSysTickHandler  port.o
    0x080041bc   0x080041bc   0x00000134   Code   RO         2918    i.xTaskGenericCreate  tasks.o
    0x080042f0   0x080042f0   0x00000020   Code   RO         2922    i.xTaskGetSchedulerState  tasks.o
    0x08004310   0x08004310   0x0000013c   Code   RO         2925    i.xTaskIncrementTick  tasks.o
    0x0800444c   0x0800444c   0x000000e8   Code   RO         2931    i.xTaskResumeAll    tasks.o
    0x08004534   0x08004534   0x00000018   Data   RO           15    .constdata          system_stm32f1xx.o
    0x0800454c   0x0800454c   0x00000014   Data   RO         3644    .constdata          main.o
    0x08004560   0x08004560   0x000001e0   Data   RO         4037    .constdata          gfx.o
    0x08004740   0x08004740   0x0000000d   Data   RO         3645    .conststring        main.o
    0x0800474d   0x0800474d   0x00000003   PAD
    0x08004750   0x08004750   0x00000020   Data   RO         4485    Region$$Table       anon$$obj.o


    Execution Region RW_IRAM1 (Exec base: 0x20000000, Load base: 0x08004770, Size: 0x00001530, Max: 0x00002800, ABSOLUTE)

    Exec Addr    Load Addr    Size         Type   Attr      Idx    E Section Name        Object

    0x20000000   0x08004770   0x00000004   Data   RW           16    .data               system_stm32f1xx.o
    0x20000004   0x08004774   0x00000004   Data   RW           92    .data               stm32f1xx_hal.o
    0x20000008   0x08004778   0x00000001   Data   RW         1355    .data               stm32f1xx_hal_spi_ex.o
    0x20000009   0x08004779   0x00000003   PAD
    0x2000000c   0x0800477c   0x00000038   Data   RW         2934    .data               tasks.o
    0x20000044   0x080047b4   0x0000000c   Data   RW         3184    .data               port.o
    0x20000050   0x080047c0   0x00000018   Data   RW         3587    .data               heap_4.o
    0x20000068   0x080047d8   0x00000012   Data   RW         3646    .data               main.o
    0x2000007a   0x080047ea   0x00000002   PAD
    0x2000007c   0x080047ec   0x00000008   Data   RW         4038    .data               gfx.o
    0x20000084        -       0x000000f0   Zero   RW         2933    .bss                tasks.o
    0x20000174        -       0x00000c00   Zero   RW         3586    .bss                heap_4.o
    0x20000d74        -       0x00000120   Zero   RW         3643    .bss                main.o
    0x20000e94        -       0x0000003c   Zero   RW         3820    .bss                stm32f1xx_hal_timebase_tim.o
    0x20000ed0        -       0x00000060   Zero   RW         4359    .bss                c_w.l(libspace.o)
    0x20000f30        -       0x00000200   Zero   RW            2    HEAP                startup_stm32f103x6.o
    0x20001130        -       0x00000400   Zero   RW            1    STACK               startup_stm32f103x6.o


==============================================================================

Image component sizes


      Code (inc. data)   RO Data    RW Data    ZI Data      Debug   Object Name

        98          0          0          0          0       9460   cmsis_os.o
         0          0          0          0          0      10316   croutine.o
         0          0          0          0          0       3968   event_groups.o
       530         12        480          8          0       6531   gfx.o
       624         64          0         24       3072       4331   heap_4.o
        96          0          0          0          0       2828   list.o
      2032        256         33         18        288      12877   main.o
       590         72          0         12          0       8005   port.o
         0          0          0          0          0       3072   queue.o
       366         26          0          0          0       3341   st7735.o
        64         26        236          0       1536        948   startup_stm32f103x6.o
        94         16          0          4          0      83331   stm32f1xx_hal.o
       338         22          0          0          0      26953   stm32f1xx_hal_cortex.o
        32          0          0          0          0       1059   stm32f1xx_hal_crc.o
      1018          4          0          0          0       3671   stm32f1xx_hal_dma.o
       788         28          0          0          0       2888   stm32f1xx_hal_gpio.o
       500         58          0          0          0       2955   stm32f1xx_hal_msp.o
      3180        110          0          0          0       6545   stm32f1xx_hal_rcc.o
      1560          0          0          0          0       3953   stm32f1xx_hal_spi.o
       140          6          0          1          0       1410   stm32f1xx_hal_spi_ex.o
       590         10          0          0          0       6126   stm32f1xx_hal_tim.o
         4          0          0          0          0       1590   stm32f1xx_hal_tim_ex.o
       136         18          0          0         60       1552   stm32f1xx_hal_timebase_tim.o
      1908         18          0          0          0      11672   stm32f1xx_hal_uart.o
        92         24          0          0          0       5054   stm32f1xx_it.o
        88         18         24          4          0     371851   system_stm32f1xx.o
      1578        224          0         56        240      13300   tasks.o
       564         28          0          0          0       2851   tft.o

    ----------------------------------------------------------------------
     17042       1040        808        132       5196     612438   Object Totals
         0          0         32          0          0          0   (incl. Generated)
        32          0          3          5          0          0   (incl. Padding)

    ----------------------------------------------------------------------

      Code (inc. data)   RO Data    RW Data    ZI Data      Debug   Library Member Name

         8          0          0          0          0         68   __main.o
         0          0          0          0          0          0   __rtentry.o
        12          0          0          0          0          0   __rtentry2.o
         6          0          0          0          0          0   __rtentry4.o
        52          8          0          0          0          0   __scatter.o
        26          0          0          0          0          0   __scatter_copy.o
        28          0          0          0          0          0   __scatter_zi.o
        18          0          0          0          0         80   exit.o
         6          0          0          0          0        152   heapauxi.o
         0          0          0          0          0          0   indicate_semi.o
         2          0          0          0          0          0   libinit.o
         2          0          0          0          0          0   libinit2.o
         2          0          0          0          0          0   libshutdown.o
         2          0          0          0          0          0   libshutdown2.o
         8          4          0          0         96         68   libspace.o
       100          0          0          0          0         80   rt_memcpy_w.o
         2          0          0          0          0          0   rtexit.o
        10          0          0          0          0          0   rtexit2.o
        62          0          0          0          0         76   strlen.o
        12          4          0          0          0         68   sys_exit.o
        74          0          0          0          0         80   sys_stackheap_outer.o
         2          0          0          0          0         68   use_no_semi.o

    ----------------------------------------------------------------------
       438         16          0          0         96        740   Library Totals
         4          0          0          0          0          0   (incl. Padding)

    ----------------------------------------------------------------------

      Code (inc. data)   RO Data    RW Data    ZI Data      Debug   Library Name

       434         16          0          0         96        740   c_w.l

    ----------------------------------------------------------------------
       438         16          0          0         96        740   Library Totals

    ----------------------------------------------------------------------

==============================================================================


      Code (inc. data)   RO Data    RW Data    ZI Data      Debug   

     17480       1056        808        132       5292     606050   Grand Totals
     17480       1056        808        132       5292     606050   ELF Image Totals
     17480       1056        808        132          0          0   ROM Totals

==============================================================================

    Total RO  Size (Code + RO Data)                18288 (  17.86kB)
    Total RW  Size (RW Data + ZI Data)              5424 (   5.30kB)
    Total ROM Size (Code + RO Data + RW Data)      18420 (  17.99kB)

==============================================================================

