:020000040800F2
:10000000301500202D020008B129000889260008BB
:10001000AD29000887030008113600080000000021
:10002000000000000000000000000000890100083E
:10003000CD03000800000000CD010008712C00086D
:10004000470200084702000847020008470200086C
:10005000470200084702000847020008470200085C
:10006000470200084702000847020008470200084C
:10007000470200088D0300089D030008470200089E
:10008000470200084702000847020008470200082C
:10009000470200084702000847020008470200081C
:1000A00047020008452D00084702000847020008E3
:1000B000470200084702000800000000470200084D
:1000C000470200080000000000000000470200088E
:1000D0000000000001360008470200080000000090
:1000E00047020008470200084702000800F002F833
:1000F00000F03AF80AA090E8000C82448344AAF188
:100100000107DA4501D100F02FF8AFF2090EBAE885
:100110000F0013F0010F18BFFB1A43F0010318473B
:100120003046000050460000103A24BF78C878C11D
:10013000FAD8520724BF30C830C144BF04680C60ED
:10014000704700000023002400250026103A28BF35
:1001500078C1FBD8520728BF30C148BF0B60704739
:100160001FB51FBD10B510BD00F0D4F81146FFF744
:10017000F7FF03F041FB00F0F2F803B4FFF7F2FFE2
:1001800003BC00F0F9F80000204B19680868B0E8DB
:10019000F00F80F30988BFF36F8F4FF0000080F3FA
:1001A00011884EF00D0E70470000000006480068F0
:1001B000006880F3088862B661B6BFF34F8FBFF363
:1001C0006F8F00DF00BF00BF08ED00E0EFF3098094
:1001D000BFF36F8F0D4B1A6820E9F00F106008B560
:1001E0004FF0500080F3118803F048FF4FF00000FB
:1001F00080F31188BDE8084019680868B0E8F00F7E
:1002000080F30988BFF36F8F704700BF0C00002098
:10021000EFF311804FF0500181F31188704780F3A4
:1002200011887047EFF30580704700000948804748
:1002300009480047FEE7FEE7FEE7FEE7FEE7FEE7C8
:10024000FEE7FEE7FEE7FEE704480549054A064BE0
:1002500070470000ED2C0008ED000008300F002072
:1002600030150020301100203011002010B5431C43
:1002700002E010F8011B71B18107FAD14FF0013291
:1002800002C88C1A8C4314EAC211F9D0C01A0A06AB
:1002900003D0C01E10BDC01A10BD0A0401D0801EBC
:1002A00010BD0902FCD0401E10BD10B5203AC0F0B0
:1002B0000B80B1E81850203AA0E81850B1E8185067
:1002C000A0E81850BFF4F5AF5FEA027C24BFB1E8A4
:1002D0001850A0E8185044BF18C918C0BDE8104015
:1002E0005FEA827C24BF51F8043B40F8043B08BF1E
:1002F0007047D20728BF31F8023B48BF11F8012BE5
:1003000028BF20F8023B48BF00F8012B7047704718
:1003100070477047754600F02BF8AE4605006946F9
:10032000534620F00700854618B020B5FFF78CFF34
:10033000BDE820404FF000064FF000074FF00008E6
:100340004FF0000B21F00701AC46ACE8C009ACE867
:10035000C009ACE8C009ACE8C0098D46704710B5CB
:100360000446AFF300802046BDE81040FFF705BF0C
:1003700000487047D00E002001491820ABBEFEE7B0
:1003800026000200704700BFFEE7000010B50248DB
:1003900000F048F810BD0000CC0D002010B5024858
:1003A00000F040F810BD0000440E002010B50468B5
:1003B00063604468102C04D10468A2600468E160A2
:1003C00003E00468A1600468E26010BD704700BFEC
:1003D000FEE710B504460CB9012010BD607920B9C4
:1003E00000202071204600F005F8012060710020F7
:1003F000F3E7000008B5094A016891420DD100BF3A
:100400000749496941F04001054A5161114649696E
:1004100001F04001009100BF00BF08BD0030024064
:100420000010024010B50446C1480068C04A0832B6
:100430002168914201D1082127E0BD4A1C32216880
:10044000914201D1802120E0B94A303221689142A5
:1004500001D1C91419E0B64A44322168914202D14F
:100460004FF4004111E0B24A58322168914202D162
:100470004FF4002109E0AE4A6C322168914202D16A
:100480004FF4000101E04FF00061084000284DD01A
:1004900020680068C0F3C00090B32068006820F0B6
:1004A000080021680860A24908312068884201D10B
:1004B000082028E09E491C312068884201D1802014
:1004C00021E09B4930312068884201D1C0141AE0F4
:1004D000974944312068884202D14FF4004012E02D
:1004E000934958312068884202D14FF400200AE035
:1004F0008F496C312068884203D14FF4000002E03C
:1005000014E04FF000608A494860606B40F00100E1
:100510006063042084F8210000BF002084F82000DC
:1005200000BF206B10B12046216B884780480068CF
:100530007F4A08322168914201D1042127E07C4A98
:100540001C322168914201D1402120E0784A3032AA
:100550002168914201D1091519E0754A4432216898
:10056000914202D14FF4804111E0714A5832216822
:10057000914202D14FF4802109E06D4A6C3221682A
:10058000914202D14FF4800101E04FF080610840B8
:10059000A0B320680068C0F3800078B320680068CA
:1005A00000F0200028B92068006820F004002168CD
:1005B00008605F4908312068884201D1042028E0A2
:1005C0005B491C312068884201D1402021E0584914
:1005D00030312068884201D100151AE05449443175
:1005E0002068884202D14FF4804012E050495831CF
:1005F0002068884203D14FF480200AE013E04C4980
:100600006C312068884202D14FF4800001E04FF045
:10061000806047494860112084F82100E06A10B1E9
:100620002046E16A884742480068414A083221680A
:10063000914201D1022127E03D4A1C3221689142BA
:1006400001D1202120E03A4A30322168914201D183
:10065000491519E0364A44322168914202D14FF4DB
:10066000005111E0324A58322168914202D14FF4D0
:10067000003109E02E4A6C322168914202D14FF4D8
:10068000001101E04FF000710840A0B3206800683D
:10069000C0F3400078B32068006800F0200028B95B
:1006A0002068006820F002002168086020490831B5
:1006B0002068884201D1022028E01D491C312068B1
:1006C000884201D1202021E0194930312068884238
:1006D00001D140151AE0164944312068884202D100
:1006E0004FF4005012E0124958312068884203D17B
:1006F0004FF400300AE01AE00D496C31206888425E
:1007000002D14FF4001001E04FF00070084948603A
:10071000606B6063012084F8210000BF002084F832
:10072000200000BFA06A10B12046A16A884710BD12
:10073000000002400146002209B90120704791F8EB
:10074000210010B9002081F82000022081F821004A
:100750000868026843F6F0708243D1E90103184348
:10076000CB6818430B6918434B6918438B691843CE
:10077000CB691843024308680260002048630120E7
:1007800081F821000020D9E72DE9F04104460D460B
:1007900016461F4600BF94F82000012802D102200F
:1007A000BDE8F081012084F8200000BF022084F819
:1007B00021002068006820F00100216808603B46A5
:1007C000324629462046FFF7F1FD2068006840F0D8
:1007D0000200216808602068006840F00400216879
:1007E00008602068006840F0080021680860206800
:1007F000006840F00100216808600020D0E731B5B2
:10080000002400F093F9044600BF00F08FF9001BAC
:1008100000998842F9D338BD2DE9F84703460024F2
:100820000020002584460027002266E14FF00108E1
:1008300008FA02F4D1F8008008EA0400A0427DD151
:10084000DFF8C0A2D1F80480A8EB0A09D0453AD05D
:1008500014DCB8F1030F50D009DCB8F1000F31D02F
:10086000B8F1010F1CD0B8F1020F49D120E0B8F166
:10087000110F18D0B8F1120F42D11EE0B9F5881F40
:1008800025D006DCB9F5803F20D0B9F5801F37D1DF
:100890001AE0B9F5001F18D0B9F5041F30D117E0E0
:1008A000D1F80CC02DE0D1F80C8008F1040C28E040
:1008B000D1F80C8008F1080C23E0D1F80C8008F185
:1008C0000C0C1EE000BF00BF00BF00BF00BF00BF98
:1008D000D1F80880B8F1000F02D14FF0040C0BE002
:1008E000D1F80880B8F1010F03D14FF0080C1C615A
:1008F00002E04FF0080C5C6103E04FF0000C00E0F8
:1009000000BF00BFFF2801D8984601E003F10408AA
:100910004646FF2802D84FEA820803E0A2F1080801
:100920004FEA88084746D6F800804FF00F0909FAC9
:1009300007F928EA09080CFA07F900E085E048EA17
:100940000908C6F80080D1F8048008F08058B8F192
:10095000805F7AD100BFDFF8B081D8F8188048F006
:100960000108DFF8A491C9F81880C846D8F81880A3
:1009700008F00108CDF8008000BF00BF4FEAB93889
:100980004FEA920958F829504FEA82784FEA1879CD
:100990004FF00F0808FA09F825EA0805DFF86C811E
:1009A000434502D14FF000080FE0DFF86481434572
:1009B00002D14FF0010808E0DFF85881434502D129
:1009C0004FF0020801E04FF003084FEA82794FEA46
:1009D000197908FA09F848EA0505DFF83C814FEA79
:1009E000920948F82950D1F8048008F48038B8F505
:1009F000803F0AD1DFF82481D8F8008048EA000857
:100A0000DFF81891C9F8008009E0DFF81081D8F804
:100A1000008028EA0008DFF80491C9F80080D1F8C6
:100A2000048008F40038B8F5003F0FD1DFF8EC80FF
:100A300008F10408D8F8008048EA0008DFF8DC90E4
:100A400009F10409C9F800800EE055E0DFF8CC8018
:100A500008F10408D8F8008028EA0008DFF8BC9004
:100A600009F10409C9F80080D1F8048008F480185D
:100A7000B8F5801F0ED1DFF8A48008F10808D8F877
:100A8000008048EA0008DFF8949009F10809C9F8E5
:100A900000800DE0DFF8848008F10808D8F80080B5
:100AA00028EA0008DFF8749009F10809C9F8008005
:100AB000D1F8048008F40018B8F5001F0ED1DFF853
:100AC0005C8008F10C08D8F8008048EA0008DFF8DC
:100AD0004C9009F10C09C9F800800DE0DFF83C806A
:100AE00008F10C08D8F8008028EA0008DFF82C90FC
:100AF00009F10C09C9F80080521C102AFFF496AEC7
:100B0000BDE8F88700001110001002400008014005
:100B1000000C0140001001400800014000040140A9
:100B20000AB1016101E00B040361704701480068EC
:100B3000704700000400002002480068401C014982
:100B4000086070470400002010B50848006840F0B5
:100B5000100006490860032000F0E0F8002000F0D3
:100B600007F800F049F8002010BD00000020024006
:100B700070B588B0044600250026002221461920C1
:100B800000F08DF8192000F07DF800BF164880694C
:100B900040F40060144988610846806900F40060F0
:100BA000019000BF00BF02A903A800F017FA00F0EF
:100BB00053FA45000D48B5FBF0F0461E0C480D49B0
:100BC000086040F2E7310B48C160466000210161D6
:100BD000816001F029FA20B9064801F040FA08B016
:100BE00070BD0120FBE700000010024040420F00F2
:100BF000002C0140940E002008B500BF1F488069FA
:100C000040F001001D4988610846806900F001003C
:100C1000009000BF00BF032000F080F800221146C2
:100C20006FF00B0000F03BF8002211466FF00A0055
:100C300000F035F8002211466FF0090000F02FF89F
:100C400000221146501F00F02AF800221146101F02
:100C500000F025F800220F21901E00F020F800225D
:100C60000F21501E00F01BF80548406820F0E0609E
:100C700040F080600249486008BD0000001002405A
:100C80000000014000BF00F01F0201219140420915
:100C9000920002F1E022C2F8001100BF70472DE976
:100CA000F05F80460D461646002701F083FE07469A
:100CB00039462A46334601F00700C0F1070ABAF167
:100CC000040F02D94FF0040A01E0C0F1070AD1462F
:100CD00000F1040ABAF1070F02D24FF0000A01E056
:100CE000A0F1030AD4464FF0010A0AFA09FAAAF160
:100CF000010A0AEA020A0AFA0CFA4FF0010B0BFA8F
:100D00000CFBABF1010B0BEA030B4AEA0B04214687
:100D1000404601F057FEBDE8F09F000000BF00F024
:100D20000702064B19684FF6FF031940044B0B43AB
:100D300043EA0221014B196000BF70470CED00E04F
:100D40000000FA0570B504460D4600269F4800686D
:100D500000F00700A8420ED29C48006820F007006F
:100D600028439A4908600846006800F00700A84236
:100D700001D0012070BD207800F00200022807D1C8
:100D80009348406820F0F000A1680843904948600B
:100D9000207800F0010000287CD0606801282DD167
:100DA0002020010391FAA1F1B1FA81F10843012158
:100DB000B1EB601F02D1864800680FE020200103DC
:100DC00091FAA1F1B1FA81F108430221B1EB601F60
:100DD00002D17F48006A01E07D48406A20210A0371
:100DE00092FAA2F2B2FA82F2114301F01F0201213B
:100DF00091400840002860D10120BBE760680228CC
:100E00002CD12020010591FAA1F1B1FA81F108431A
:100E10000121B1EB601F02D16D4800680FE0202076
:100E2000010591FAA1F1B1FA81F108430221B1EB78
:100E3000601F02D16648006A01E06548406A2021CF
:100E40000A0592FAA2F2B2FA82F2114301F01F02ED
:100E500001219140084078BB01208BE7202002212E
:100E600091FAA1F1B1FA81F108430121B1EB601FC0
:100E700002D15748006810E02020022191FAA1F128
:100E8000B1FA81F108430221B1EB601F03D1504850
:100E9000006A02E054E04E48406A2021022292FAA1
:100EA000A2F2B2FA82F2114301F01F020121914035
:100EB000084008B901205DE7FFE74548406820F099
:100EC00003006168084342494860FFF72FFE064669
:100ED0006068012810D108E0FFF728FE801B41F26E
:100EE0008831884201D9032044E73948406800F03E
:100EF0000C000428F0D123E06068022810D108E03B
:100F0000FFF714FE801B41F28831884201D903208B
:100F100030E72F48406800F00C000828F0D10FE0BF
:100F200008E0FFF703FE801B41F28831884201D9B7
:100F300003201FE72648406800F00C000028F0D18D
:100F40002248006800F00700A8420ED91F48006838
:100F500020F0070028431D4908600846006800F09B
:100F60000700A84201D0012004E7207800F0040027
:100F7000042807D11648406820F4E060E16808437F
:100F800013494860207800F00800082808D110486C
:100F9000406820F46050216940EAC1000C49486073
:100FA00000F070F80A49496801F0F001F02292FA65
:100FB000A2F2B2FA82F2D140064A515CC840064918
:100FC00008600020FFF7D4FD0020D3E60020024097
:100FD0000010024034450008000000200F2202608B
:100FE0000D4A526802F0030242600B4A526802F056
:100FF000F0028260084A526802F4E062C260064A67
:10100000526802F46052D2080261044A126802F087
:1010100007020A60704700000010024000200240F2
:1010200001480068704700000000002000B5FFF78D
:10103000F7FF0749496801F4E0614FF4E06292FA72
:10104000A2F2B2FA82F2D140024A515CC84000BD1D
:10105000001002404445000800B5FFF7E1FF0749D2
:10106000496801F460514FF4605292FAA2F2B2FA68
:1010700082F2D140024A515CC84000BD00100240DB
:1010800044450008F0B585B00FF28C0C9CE8E010E8
:1010900001A8A0E8E01024A52D68009500210024F7
:1010A000002200230020214D696801F00C056DB37A
:1010B000042D02D0082D28D101E01D4828E001F4BC
:1010C00070154FF4701696FAA6F6B6FA86F6F54045
:1010D00001AE735D01F4803595B1144D6D6805F472
:1010E00000354FF4003696FAA6F6B6FA86F6F540C5
:1010F0001DF805400E4DB5FBF4F505FB03F202E0CB
:101100000C4D03FB05F2104602E000BF084800BF8B
:1011100000BF05B0F0BD0000020304050607080982
:101120000A0B0C0D0E0F10100102000000100240FF
:1011300000127A0000093D0038B5044600252078E9
:1011400000F0010000287CD0F848406800F00C0056
:1011500004280CD0F548406800F00C00082837D16E
:10116000F248406800F48030B0F5803F30D1202054
:10117000010391FAA1F1B1FA81F108430121B1EB28
:10118000601F02D1E94800680FE02020010391FAB6
:10119000A1F1B1FA81F108430221B1EB601F02D144
:1011A000E248006A01E0E148406A20210A0392FA1D
:1011B000A2F2B2FA82F2114301F01F020121914022
:1011C00008400028BFD0606800283AD1012038BD0F
:1011D00000BF6068B0F5803F06D1D448006840F495
:1011E0008030D249086028E0606858B9CF4800686C
:1011F00020F48030CD4908600846006820F4802043
:1012000008601AE06068B0F5A02F0BD1C7480068ED
:1012100040F48020C54908600846006840F48030EA
:1012200008600AE0C148006820F48030BF490860C7
:101230000846006820F48020086000BF6068C8B3DA
:1012400000E06FE0FFF772FC054606E0FFF76EFC7A
:10125000401B642801D90320B9E72020010391FA3B
:10126000A1F1B1FA81F108430121B1EB601F02D174
:10127000AE4800680FE02020010391FAA1F1B1FA15
:1012800081F108430221B1EB601F02D1A748006A37
:1012900001E0A648406A20210A0392FAA2F2B2FABB
:1012A00082F2114301F01F02012191400840002801
:1012B000CCD037E0FFE7FFF739FC054606E0FFF743
:1012C00035FC401B642801D9032080E7202001035E
:1012D00091FAA1F1B1FA81F108430121B1EB601F4C
:1012E00002D1924800680FE02020010391FAA1F199
:1012F000B1FA81F108430221B1EB601F02D18B48A2
:10130000006A01E08948406A20210A0392FAA2F2A9
:10131000B2FA82F2114301F01F020121914008400C
:101320000028CCD1207800F0020002284ED17F485E
:10133000406800F00C0050B17C48406800F00C00A0
:10134000082844D17948406800F4803078BB2020D8
:10135000022191FAA1F1B1FA81F108430121B1EB27
:10136000601F02D1714800680FE02020022191FA2D
:10137000A1F1B1FA81F108430221B1EB601F02D162
:101380006A48006A01E06948406A2021022292FA14
:10139000A2F2B2FA82F2114301F01F020121914040
:1013A000084028B12069012802D001200FE70EE093
:1013B0005E48006820F0F800F82292FAA2F2B2FA31
:1013C00082F26169914008435849086091E02069C0
:1013D000F0B3012090FAA0F1B1FA81F1544A42F839
:1013E0002100FFF7A3FB054606E0FFF79FFB401B2C
:1013F000022801D90320EAE62020022191FAA1F176
:10140000B1FA81F108430121B1EB601F02D14748D5
:1014100000680FE02020022191FAA1F1B1FA81F1D8
:1014200008430221B1EB601F02D14048006A01E08D
:101430003E48406A2021022292FAA2F2B2FA82F2D7
:10144000114301F01F02012191400840002800E0F3
:101450000FE0CAD03548006820F0F800F82292FA70
:10146000A2F2B2FA82F26169914008432F49086002
:101470003FE00020012191FAA1F1B1FA81F12C4A5B
:1014800042F82100FFF752FB054606E0FFF74EFB4E
:10149000401B022801D9032099E62020022191FA5D
:1014A000A1F1B1FA81F108430121B1EB601F02D132
:1014B0001E4800680FE02020022191FAA1F1B1FA44
:1014C00081F108430221B1EB601F02D11748006A85
:1014D00001E01648406A2021022292FAA2F2B2FAF2
:1014E00082F2114301F01F020121914008400028BF
:1014F000CCD1207800F0080008284BD1A069A8B30F
:10150000012191FAA1F0B0FA80F0094A02EB8000C3
:10151000C0F88014FFF70AFB05460BE0FFF706FB57
:10152000401B022806D9032051E6000000100240AB
:10153000000042426020022191FAA1F1B1FA81F14A
:1015400008430121B1EB601F02D1F948006810E0A7
:101550006020022191FAA1F1B1FA81F10843022140
:10156000B1EB601F03D1F248006A02E013E0F048DB
:10157000406A6021022292FAA2F2B2FA82F2114388
:1015800001F01F020121914008400028C6D001202F
:10159000FFF735F941E00020012191FAA1F1B1FAFC
:1015A00081F1E44A02EB8101C1F88004FFF7BEFA41
:1015B000054606E0FFF7BAFA401B022801D90320CE
:1015C00005E66020022191FAA1F1B1FA81F1084308
:1015D0000121B1EB601F02D1D54800680FE0602007
:1015E000022191FAA1F1B1FA81F108430221B1EB94
:1015F000601F02D1CE48006A01E0CD48406A6021F8
:10160000022292FAA2F2B2FA82F2114301F01F0210
:101610000121914008400028CCD1207800F004003E
:10162000042875D100BFC248C06940F08050C0494D
:10163000C8610846C06900F08050009000BF00BF3C
:10164000BD48006840F48070BB490860FFF76EFA3F
:10165000054606E0FFF76AFA401B642801D903201B
:10166000B5E5B548006800F480700028F2D000BFEE
:10167000E068012806D1AE48006A40F00100AC499C
:10168000086227E0E06858B9A948006A20F0010024
:10169000A74908620846006A20F00400086219E0C1
:1016A000E06805280BD1A248006A40F00400A04978
:1016B00008620846006A40F0010008620AE09C489F
:1016C000006A20F001009A4908620846006A20F08A
:1016D0000400086200BFE068D0B3FFF727FA0546B0
:1016E00008E0FFF723FA401B41F28831884201D914
:1016F00003206CE54020022191FAA1F1B1FA81F1B9
:1017000008430121B1EB601F03D18948006810E054
:1017100058E04020022191FAA1F1B1FA81F1084389
:101720000221B1EB601F02D18148006A01E08048CC
:10173000406A4021022292FAA2F2B2FA82F21143E6
:1017400001F01F020121914008400028C9D039E072
:10175000FFE7FFF7EBF9054608E0FFF7E7F9401B65
:1017600041F28831884201D9032030E5402002212E
:1017700091FAA1F1B1FA81F108430121B1EB601FA7
:1017800002D16B4800680FE04020022191FAA1F1DC
:10179000B1FA81F108430221B1EB601F02D1644824
:1017A000006A01E06248406A4021022292FAA2F2F5
:1017B000B2FA82F2114301F01F0201219140084068
:1017C0000028CAD1E069002873D05948406800F069
:1017D0000C0008286ED0E06902286CD100204FF080
:1017E000807191FAA1F1B1FA81F1524A42F82100D7
:1017F000FFF79CF9054606E0FFF798F9401B022821
:1018000001D90320E3E42020010591FAA1F1B1FA06
:1018100081F108430121B1EB601F02D14448006807
:101820000FE02020010591FAA1F1B1FA81F10843FE
:101830000221B1EB601F02D13D48006A01E03C4843
:10184000406A20210A0592FAA2F2B2FA82F211430A
:1018500001F01F020121914008400028CCD1206AEC
:10186000B0F5803F07D13248406820F40030A168CD
:1018700008432F494860D4E9080108432C494968C6
:1018800021F4741108432A4948600121080690FA9E
:10189000A0F0B0FA80F0274A42F82010FFF746F98E
:1018A000054609E0FFF742F9401B022804D903204E
:1018B0008DE479E076E02CE02020010591FAA1F199
:1018C000B1FA81F108430121B1EB601F02D1184840
:1018D00000680FE02020010591FAA1F1B1FA81F131
:1018E00008430221B1EB601F02D11148006A01E0F8
:1018F0000F48406A20210A0592FAA2F2B2FA82F257
:10190000114301F01F020121914008400028C9D075
:101910004AE000204FF0807191FAA1F1B1FA81F113
:10192000044A42F82100FFF701F905460DE00000E6
:10193000001002400000424200700040FFF7F6F83D
:10194000401B022801D9032041E42020010591FA1F
:10195000A1F1B1FA81F108430121B1EB601F02D17D
:10196000124800680FE02020010591FAA1F1B1FAB8
:1019700081F108430221B1EB601F02D10B48006ADC
:1019800001E00A48406A20210A0592FAA2F2B2FA5E
:1019900082F2114301F01F0201219140084000280A
:1019A000CCD101E0012012E4002010E4001002403C
:1019B00010B504460CB9012010BD94F8510010B9BF
:1019C000204600F03BF8022084F8510020680068AF
:1019D00020F0400021680860D4E901010843E16873
:1019E00008432169084361690843218B01F40071B0
:1019F0000843E1690843216A0843A16A0843216852
:101A000008600421A06901EA1040616A0843216866
:101A100048602168E06A08612068C06920F40060BD
:101A20002168C8610020044908706065012084F8BD
:101A300051000020C0E700000800002010B586B06B
:101A400004461B492068884230D100BF194880698C
:101A500040F48050174988610846806900F480503E
:101A6000019000BF00BFA02002900220039003203D
:101A7000059002A91048FEF7CFFE104810490860F3
:101A80001020486000210E4881608021C160002143
:101A9000016141618161C161FEF74CFE08B1FEF751
:101AA00096FC00BF06482064446200BF06B010BD2B
:101AB00000300140001002400008014030000240A8
:101AC000CC0D0020F8B504460E4615461F4694F886
:101AD0005100012874D106B10DB90120F8BD00BF35
:101AE00094F85000012801D10220F7E7012084F882
:101AF000500000BF122084F851000020606526636A
:101B0000A586E586E064A064A063A087E087A06A5C
:101B1000B0F5005F0DD100BF2068006820F40050D0
:101B2000216808602068006840F40050216808605F
:101B300000BFA068B0F5004F05D12068006840F4F0
:101B40008040216808602068006800F0400040285C
:101B500005D02068006840F0400021680860E06817
:101B600078BB606810B1E08E012808D1216B481C59
:101B7000206308782168C860E08E401EE08611E08E
:101B80003B4600220221204600F030FF08B103202E
:101B9000A4E7216B481C206308782168C860E08EA8
:101BA000401EE086E08E0028EADCA06AB0F5005F07
:101BB00038D12068006840F480502168086031E026
:101BC0005EE0FFE7606810B1E08E012809D1206B6C
:101BD00000882168C860206B801C2063E08E401E56
:101BE000E08612E03B4600220221204600F0FEFE85
:101BF00008B1032072E7206B00882168C860206B61
:101C0000801C2063E08E401EE086E08E0028E9DC28
:101C1000A06AB0F5005F05D12068006840F48050EC
:101C2000216808603B4600220221204600F0DEFECB
:101C300028B1606D40F01000606503204EE73B4620
:101C400001228021204600F0D1FE28B1606D40F0D5
:101C500010006065032041E7A06840B900BF20681C
:101C6000C068009020688068009000BF00BF01201D
:101C700084F8510000BF002084F8500000BF2DE719
:101C800002202BE72DE9F84304460E4617461D4671
:101C9000DDF820800020009094F85100012803D046
:101CA00094F85100222876D10EB107B115B9012060
:101CB000BDE8F88300BF94F85000012801D102204C
:101CC000F6E7012084F8500000BF94F85100012885
:101CD00002D1322084F8510000206065A763A587F7
:101CE000E5872663A586E586A064E064A06AB0F572
:101CF000005F0DD100BF2068006820F4005021680B
:101D000008602068006840F400502168086000BF47
:101D10002068006800F04000402805D02068006876
:101D200040F0400021680860E068B0F5006F75D1B0
:101D3000606830B16068B0F5827F0CD1E08E012818
:101D400009D1206B00882168C860206B801C20634B
:101D5000E08E401EE086E08EF0B9A06AB0F5005F2C
:101D600005D12068006840F480502168086043462F
:101D700000220121204600F039FE08B1032097E738
:101D80002068C068A16B0880A06B801CA063E08FF6
:101D9000401EE087C7E015E131E043460022022102
:101DA000204600F023FE08B1032081E7206B008865
:101DB0002168C860206B801C2063E08E401EE08696
:101DC000E08E48B9A06AB0F5005F05D120680068D0
:101DD00040F48050216808604346002201212046DB
:101DE00000F004FE08B1032062E72068C068A16B20
:101DF0000880A06B801CA063E08F401EE087E08E0F
:101E00000028CADC60680028C4D1434600220121B2
:101E1000204600F0EBFD10B1032049E70AE02068FE
:101E2000C068A16B0880A06B801CA063E08F401E7F
:101E3000E08778E0606830B16068B0F5827F0BD1F0
:101E4000E08E012808D1216B481C206308782168A6
:101E5000C860E08E401EE086E08ED0B9A06AB0F582
:101E6000005F05D12068006840F480502168086058
:101E7000434600220121204600F0B8FD08B10320AE
:101E800016E72068C068A16B0870E08F401EE087ED
:101E900049E030E0434600220221204600F0A6FD42
:101EA00008B1032004E7216B481C206308782168EF
:101EB000C860E08E401EE086E08E48B9A06AB0F5AA
:101EC000005F05D12068006840F4805021680860F8
:101ED000434600220121204600F088FD08B103207E
:101EE000E6E62068C068C1B2A26B501CA063117006
:101EF000E08F401EE087E08E0028CBDC606890B960
:101F0000434600220121204600F070FD08B1032065
:101F1000CEE62068C068C1B2A26B501CA0631170ED
:101F2000E08F401EE087A06AB0F5005F12D1434603
:101F300000220121204600F059FD28B1606D40F0DB
:101F4000020060650320B3E62068C06880B200909C
:101F5000BDF80000434601228021204600F046FDE6
:101F600028B1606D40F0100060650320A0E60120FC
:101F700084F85100A06AB0F5005F1DD12068806828
:101F8000C0F30010C0B1606D40F00200606500BF9A
:101F90002068006820F4005021680860206800680C
:101FA00040F400502168086000BF00BF002084F8A2
:101FB000500000BF01207BE600BF002084F85000E5
:101FC00000BF75E6022073E6042808D14FF0E02137
:101FD000096941F004014FF0E022116107E04FF080
:101FE000E021096921F004014FF0E02211617047FE
:101FF00070B504462546681EB0F1807F01D30120EC
:102000000FE0681E4FF0E02148610F214FF0FF30D4
:1020100000F0D8FC00204FF0E02188610720086123
:10202000002070BD7047704710B504460CB9012000
:1020300010BD94F8390028B9002084F838002046F3
:1020400000F00CF8022084F83900211D206800F00F
:1020500081FE012084F839000020E9E7704701463D
:102060000868C06840F001000A68D060086800682D
:1020700040F001000A68106000207047704710B5FA
:10208000044620680069C0F34000D8B12068C068E9
:10209000C0F34000B0B16FF0020021680861012078
:1020A00020762068806900F0030018B12046FFF711
:1020B000E5FF05E0204600F0ADF8204600F0ABF863
:1020C0000020207620680069C0F38000D8B1206825
:1020D000C068C0F38000B0B16FF0040021680861EF
:1020E000022020762068806900F4407018B12046F4
:1020F000FFF7C4FF05E0204600F08CF8204600F012
:102100008AF80020207620680069C0F3C000D8B1AA
:102110002068C068C0F3C000B0B16FF0080021684B
:102120000861042020762068C06900F0030018B11F
:102130002046FFF7A3FF05E0204600F06BF820469D
:1021400000F069F80020207620680069C0F30010D4
:10215000D8B12068C068C0F30010B0B16FF01000B3
:1021600021680861082020762068C06900F440706A
:1021700018B12046FFF782FF05E0204600F04AF83C
:10218000204600F048F8002020762068006900F022
:10219000010058B12068C06800F0010030B16FF054
:1021A000010021680861204600F036F820680069C7
:1021B000C0F3C01058B12068C068C0F3C01030B17F
:1021C0006FF08000216808612046FFF72BFF206830
:1021D0000069C0F3801058B12068C068C0F3801057
:1021E00030B16FF0400021680861204600F07AF8B5
:1021F00020680069C0F3401058B12068C068C0F37F
:10220000401030B16FF02000216808612046FFF7D0
:102210000AFF10BD7047704710B504462A49206870
:1022200088424FD1FEF788FC2848007800B910BDDD
:10223000FEF77CFC6421B0FBF1F201FB12000028E8
:1022400040D123480078401C21490870214800787B
:1022500040F001001F4908701D4800780A2831D15C
:1022600000201B4908701C480078401C1A4908705F
:102270001848007840F002001649087016480078A7
:102280003C281FD100201449087014480078401CD5
:10229000124908700F48007840F004000D4908709A
:1022A0000E4800783C280DD100200C4908700C48DD
:1022B0000078401C0A4908700648007840F0080081
:1022C0000449087000BFB2E7002C014079000020EB
:1022D00077000020780000207600002075000020A4
:1022E0007400002070477047F8B5044600250026AA
:1022F0002068006800F001052068C06800F480765E
:1023000025B11EB1E06B40F00100E0632068006879
:10231000C0F340052068406900F0010625B11EB1F8
:10232000E06B40F00400E06320680068C0F38005C3
:1023300025B11EB1E06B40F00200E0632068006848
:10234000C0F3C00525B11EB1E06B40F00800E063AA
:1023500020680068C0F340152068C06800F02006BF
:102360001DB116B1204600F052FF20680068C0F38E
:10237000C0152068C06800F080061DB116B1204667
:1023800001F088F820680068C0F380152068C068F4
:1023900000F040061DB116B1204600F020FFE06BB2
:1023A00070B100BF2068006800902068406800900D
:1023B00000BF00BF012084F839002046FFF793FFDB
:1023C000F8BD10B504460CB9012010BDA06900B1DC
:1023D00000E000BF94F8390028B9002084F83800E4
:1023E000204600F025F8022084F839002068C068F3
:1023F00020F400502168C860204600F067FF206884
:10240000006920F49040216808612068406920F04C
:102410002A00216848612068C06840F400502168A3
:10242000C8600020E063012084F839000020CCE778
:1024300010B586B0044625492068884244D100BFC3
:102440002348806940F480402149886108468069BA
:1024500000F48040019000BF00BF481502900220A8
:1024600003900320059002A91A48FEF7D5F94FF40E
:102470008060029000200390049002A91548FEF7A6
:10248000CBF9154815490860102048600021134811
:1024900081608021C16000210161416181614FF44F
:1024A0008051C161FEF746F908B1FDF790FF00BF0A
:1024B0000A482063446200BF002205212520FEF760
:1024C000EEFB2520FEF7DEFB06B010BD0038014014
:1024D000001002400008014044000240440E002069
:1024E0002DE9F04704460D46164699464FF0000880
:1024F00094F83980B8F1010F02D0B8F1120F69D108
:1025000005B116B90120BDE8F08700BF94F8380086
:10251000012801D10220F6E7012084F8380000BF2D
:102520000020E06394F83900122803D1322084F8A7
:10253000390002E0222084F83900A685E68535E0DE
:10254000E08D401EE085A068B0F5805F18D14B4655
:1025500000222021204600F0D5FF08B10320D2E759
:102560002F46206930B920684068C0F308003880E1
:10257000AD1C1BE020684068C0B238806D1C15E0BF
:102580004B4600222021204600F0BCFF08B103206A
:10259000B9E7206920B92068406805F8010B05E01B
:1025A0002068406800F07F0005F8010BE08D0028EE
:1025B000C6DC94F83900322803D1122084F839009F
:1025C00002E0012084F8390000BF002084F83800C0
:1025D00000BF98E7022096E770470000F7B5044671
:1025E0001546002794F83970012F01D0222F41D1D0
:1025F000019800B10DB90120FEBD00BF94F838006C
:10260000012801D10220F7E7012084F8380000BF3B
:1026100001982062A584E5840020E06394F83900E5
:10262000222803D1322084F8390002E0122084F8F5
:1026300039001148216B88621048216BC86210482C
:10264000216B086301AE23681A1D31682B46206B8D
:10265000FEF79AF86FF04000216808602068406932
:1026600040F080002168486100BF002084F83800F5
:1026700000BFC1E70220BFE79B310008D13100084D
:10268000793100087047704700BFFEE770B5044617
:102690000D4600224FF400411348FEF741FA2A206C
:1026A00001F0E2FB0122D1030F48FEF739FA200ABC
:1026B00001F0DAFB0122D1030B48FEF731FAE0B258
:1026C00001F0D2FB0122D1030748FEF729FA280ABC
:1026D00001F0CAFB0122D1030348FEF721FAE8B258
:1026E00001F0C2FB70BD00000008014070B5044657
:1026F0000D4600224FF400411348FEF711FA2B203B
:1027000001F0B2FB0122D1030F48FEF709FA200ABB
:1027100001F0AAFB0122D1030B48FEF701FAE0B257
:1027200001F0A2FB0122D1030748FEF7F9F9280ABC
:1027300001F09AFB0122D1030348FEF7F1F9E8B258
:1027400001F092FB70BD0000000801402DE9F0414E
:1027500005460E461446A9B2A8B2FFF797FFB1B2DC
:10276000B0B2FFF7C3FF00224FF400411248FEF75A
:10277000D7F92C2001F078FB4FF4784000EA1420C0
:102780004FF4FC6101EA54110843C4F3C40140EA68
:1027900001070122D1030848FEF7C2F9380A01F007
:1027A00063FB0122D1030448FEF7BAF9F8B201F045
:1027B0005BFBBDE8F08100000008014010B5054852
:1027C000054908600846FDF704FE08B1FDF7FFFD66
:1027D00010BD0000003002406800002008B500BFB6
:1027E0000E48406940F001000C49486108464069C4
:1027F00000F00100009000BF00BF002205210D2065
:10280000FEF74DFA0D20FEF73DFA002205210E20BD
:10281000FEF745FA0E20FEF735FA08BD001002401B
:1028200000B585B000BF3C48806940F010003A49CF
:1028300088610846806900F01000009000BF00BF6A
:1028400000BF0846806940F0200088610846806922
:1028500000F02000009000BF00BF00BF0846806964
:1028600040F0040088610846806900F00400009090
:1028700000BF00BF00BF0846806940F008008861C3
:102880000846806900F00800009000BF00BF4FF6C6
:10289000FF7001900320029001A92048FDF7BCFFC2
:1028A000072001900320029001A91D48FDF7B4FF05
:1028B00047F65F1001900320029001A91948FDF727
:1028C000ABFF4FF4004001900120029002200490E1
:1028D00001A91448FDF7A0FF4FF6FF7001900320F7
:1028E000029001A91048FDF797FF1F2001900120D9
:1028F0000290039001A90948FDF78EFF0B4840683C
:1029000040F400400949486000224FF40041054866
:10291000FEF706F905B000BD0010024000100140AE
:102920000014014000080140000C0140000001407B
:1029300010B50E480E4908604FF4827048600021BF
:102940000B488160C160016141614FF40071816198
:102950000021C1610162416281620A21C162FFF707
:1029600027F808B1FDF733FD10BD0000003001402D
:10297000740D002010B50B480B4908604FF4165039
:102980004860002108488160C16001610C214161FB
:1029900000218161C161FFF714FD08B1FDF717FD4A
:1029A00010BD000000380140040E002000BFFEE70B
:1029B0007047000002480068C0F302207047000022
:1029C0000CED00E010B5002807DA0A07140E054ADE
:1029D00000F00F031B1FD45403E00A07130E024A32
:1029E000135410BD18ED00E000E400E02DE9F041C3
:1029F00004460E4617461D464FF00008FEF796F8AF
:102A00008046002F3ED132E0681C78B32DB1FEF72E
:102A10008DF8A0EB0800A84229D92068406820F072
:102A2000E000216848602068006820F040002168CC
:102A30000860A06AB0F5005F0DD100BF2068006893
:102A400020F40050216808602068006840F40050BD
:102A50002168086000BF012084F8510000BF0020F9
:102A600084F8500000BF0320BDE8F081FFE7206834
:102A700080683040B04201D1012000E000200028F1
:102A8000C2D03BE030E0681C70B32DB1FEF74EF8C9
:102A9000A0EB0800A84227D92068406820F0E00099
:102AA000216848602068006820F0400021680860C4
:102AB000A06AB0F5005F0DD100BF2068006820F467
:102AC0000050216808602068006840F400502168C8
:102AD000086000BF012084F8510000BF002084F886
:102AE000500000BF0320BFE7206880683040B0423C
:102AF00001D1012000E000200028C4D10020B3E76C
:102B00002DE9F84304460D4616461F46DDF82080A1
:102B1000842C01DAA22D01DBBDE8F883A019401E48
:102B2000842802DBC4F1840086B2E819401EA22882
:102B300002DBC5F1A20087B2002201211C48FDF78B
:102B4000EFFF05EB070CACF1010C0CF0FF0304EBFD
:102B5000060CACF1010C0CF0FF02E9B2E0B200F09F
:102B600035F84FEA28208DF8000008F0FF008DF8B6
:102B700001000122D1030E48FDF7D2FF3D460EE0D1
:102B8000344608E04FF0FF33022269460948FEF759
:102B900099FF601E84B2002CF4DC681E85B2002D03
:102BA000EEDC012211460248FDF7BAFF00BFB3E791
:102BB00000080140740D002038B50446A223842289
:102BC000002108460094FFF79BFF38BDF8B5074683
:102BD0000C4615461E462A2000F022F800200090E0
:102BE000781CC0B28DF80100681CC0B28DF80300DB
:102BF0000421684600F028F82B2000F011F8601C32
:102C0000C0B28DF80100701CC0B28DF80300042121
:102C1000684600F019F82C2000F002F8F8BD00001A
:102C200001B500224FF400410548FDF779FF4FF050
:102C3000FF33012269460348FEF744FF08BD000048
:102C400000080140740D002070B504460D460122B5
:102C5000D1030548FDF764FF4FF0FF332A462146B4
:102C60000248FEF72FFF70BD00080140740D0020E0
:102C700010B500F0FFFD10BD10B590B00220069019
:102C800001200A9010200B9002200D9000210E913F
:102C900081040F9106A8FEF74FFA08B1FDF797FBE4
:102CA0000F20019002200290802003904FF4A0603A
:102CB00004904FF480600590002101A8FEF742F8CF
:102CC00008B1FDF784FBFEF7ABF94FF47A71B0FB66
:102CD000F1F42046FFF78CF90420FFF775F9002284
:102CE0000F21501EFDF7DBFF10B010BD114800682A
:102CF00040F001000F490860084640680E4908404E
:102D00000C494860084600680C49084009490860B9
:102D10000846006820F4802008600846406820F4D7
:102D2000FE0048604FF41F008860C8030449086033
:102D300070470000001002400000FFF8FFFFF6FEA1
:102D400008ED00E010B50248FFF799F910BD00004A
:102D5000940E002000220268134B984205D0B0F177
:102D6000804F02D0114B984203D122F070024B6881
:102D70001A430D4B984205D0B0F1804F02D00B4B57
:102D8000984203D122F44072CB681A4302608B68E8
:102D9000C3620B688362044B984201D10B690363E1
:102DA0000123436170470000002C014000040040F3
:102DB00088B00020CC490870CC490870CC49087014
:102DC000CC490870002500260027CB489F2303220A
:102DD00011460090104600F0C8FCC7489F2381228E
:102DE00019460090032000F0C0FCC3480323812251
:102DF0009F210090104600F0B8FCBF4803231A46FC
:102E000019460090812000F0B0FCBCA000F058FDF5
:102E10000FF200384146C44800F02AFC0790BDF884
:102E20001C00C0F184000490C0480090049800EB9E
:102E3000D07042102D234146BB4800F085FFBCA155
:102E4000B94800F015FC0790BDF81C10C1F18400D2
:102E500000EBD071C1F34709BDF81E10C1F1A2000B
:102E600000EBD071C1F3470A4FF47F0053464A4646
:102E7000B2A10090AC4800F067FF4FF42F406B1EEA
:102E80001A46AFA10090A84800F05EFFA64890F84F
:102E900004B0FF206B1E1A46A8A10090A24800F0C3
:102EA00053FF4FF42F406B1E1A46A5A100909E4879
:102EB00000F04AFF9C48007906904FF0FF106B1E0F
:102EC0001A469EA10090984800F03EFF4FF42F4014
:102ED0006B1E1A469BA10090934800F035FF924864
:102EE0000079059098486B1E1A4698A100908E486C
:102EF00000F02AFF002096490870012095490870CB
:102F0000002400BF0A23012204A99348FFF7E8FA2E
:102F1000002870D19DF81000302828DB9DF81000A3
:102F2000392824DC00208B49087024B1012C0BD0F7
:102F3000022C1BD111E005EB85009DF8101001EB70
:102F400040003038C5B211E006EB86009DF8101045
:102F500001EB40003038C6B208E007EB87009DF86F
:102F6000101001EB40003038C7B200BF43E09DF8BD
:102F700010003A2813D1601C032190FBF1F201FBF1
:102F80001200C4B224B1012C04D0022C06D103E0FB
:102F9000002503E0002601E0002700BF2BE09DF89C
:102FA00010000D2827D1002052490870172D01DD8F
:102FB000172000E028464C4908703B2E01DD3B20DD
:102FC00000E03046494908703B2F01DD3B2000E01E
:102FD0003846474908700025002600270F205C4925
:102FE0000870002401205B4908705CA000F068FCB8
:102FF00042A000F065FC56480078002872D0544882
:10300000007800F00800B8B15148007820F00800BE
:103010004F4908700223062202A93348007800F0C5
:103020006EFB01904FF47F004FF0FF334A46009053
:103030003D48019900F088FE4548007800F0040002
:10304000B0B14348007820F00400414908700223E1
:10305000062202A92548007800F051FB0190FF20CC
:103060004FF0FF335A4600902F48019900F06CFE54
:103070003748007800F00200B8B13548007820F0F9
:103080000200334908700223062202A9184800787A
:1030900000F035FB01904FF0FF104FF0FF33009030
:1030A0002148069A019900F04FFE2948007800F067
:1030B0000100B0B12648007820F0010024490870D2
:1030C0000123062202A90B48007800F018FB0190AA
:1030D0001D484FF0FF3300901348059A019900F006
:1030E00033FE00BF0EE700007400002075000020D2
:1030F000760000207700002050505000456E746527
:10310000722074696D652028683A6D3A73293A20F7
:1031100000000000436C6F636B206F6E2046726589
:103120006552544F530000007C0E00207FAA0F0010
:1031300030303A30303A30302E300000303000003D
:103140003A0000002E0000008F00FF003000000059
:103150007800002079000020040E0020436C6F638B
:103160006B2069732073657420616E642072756EC4
:103170006E696E672E20000070B505466C6A0020EF
:10318000E085E084012084F83900E06B40F0100015
:10319000E0632046FFF7A7F870BD70B505466C6A7E
:1031A0002868006800F0200070B90020E0842068E2
:1031B000406920F08000216848612068C06840F0C4
:1031C00040002168C86002E02046FFF75BFA70BD4E
:1031D00070B50446656A2846FFF755FA70BD10B50C
:1031E00004462068C06820F040002168C86094F858
:1031F0003900322803D1222084F8390002E001206E
:1032000084F839002046FFF73DFA002010BD70B564
:103210000446002694F83960222E01D0322E52D175
:10322000A068B0F5805F13D1A56A206940B9206815
:103230004068C0F308002880A06A801CA06219E0E2
:1032400020684068C0B22880A06A401CA06211E0DB
:10325000206938B920684068C1B2A26A501CA062D7
:10326000117007E02068406800F07F01A26A501CDE
:10327000A0621170E08D401E80B2E08508BB20681E
:10328000C06820F020002168C86094F83900322816
:1032900003D1122084F839000EE02068C06820F4C1
:1032A00080702168C8602068406920F001002168B2
:1032B0004861012084F839002046FFF78DF900208D
:1032C00070BD0020FCE70220FAE700002DE9F04184
:1032D000044600252068006920F44050E168084356
:1032E000216808612169A0680843616940EA010515
:1032F0002068C06841F20C61884328432168C86097
:103300002068406920F44070A16908432168486141
:103310005F49206888425CD1FDF79EFE00EBC0014A
:1033200001EB001061688900B0FBF1F6FDF794FE37
:1033300000EBC00101EB001061688900B0FBF1F007
:103340006421B0FBF1F000EBC00101EB0010A6EB33
:103350008000322101EB00106421B0FBF1F000F09D
:10336000F006FDF779FE00EBC00101EB001061688B
:103370008900B0FBF1F06421B0FBF1F006EB001620
:10338000FDF76AFE00EBC00101EB001061688900E7
:10339000B0FBF1F7FDF760FE00EBC00101EB0010A0
:1033A00061688900B0FBF1F06421B0FBF1F000EB43
:1033B000C00101EB0010A7EB8000322101EB0010EF
:1033C0006421B0FBF1F000F00F0030442168886008
:1033D0005BE0FDF72BFE00EBC00101EB0010616824
:1033E0008900B0FBF1F6FDF721FE00EBC00101EB17
:1033F000001061688900B0FBF1F06421B0FBF1F0CE
:1034000000EBC00101EB0010A6EB8000322101EBC4
:1034100000106421B0FBF1F000F0F006FDF706FEAD
:1034200000EBC00101EB001061688900B0FBF1F016
:103430006421B0FBF1F006EB0016FDF7F7FD00EBA1
:10344000C00101EB001061688900B0FBF1F7FDF7E6
:10345000EDFD00EBC00101EB001061688900B0FBDD
:10346000F1F06421B0FBF1F000EBC00101EB0010C2
:10347000A7EB8000322101EB00106421B0FBF1F0DA
:1034800000F00F00304421688860BDE8F081000042
:103490000038014010B50146002391F83930122B55
:1034A00001D0322B2CD18868B0F5805F0FD10A6A29
:1034B0001088C0F308000C686060086918B9086AD1
:1034C000801C086209E0086A401C086205E00C6A7A
:1034D000601C086220780C686060C88C401E80B256
:1034E000C88458B90868C06820F080000C68E060A3
:1034F0000868C06840F040000C68E060002010BD23
:103500000220FCE72DE9F04104460E4617461D4611
:103510004FF00008FDF70AFB80469FBB2BE0681CBC
:1035200048B32DB1FDF702FBA0EB0800A84222D959
:103530002068C06820F080002168C8602068C068EA
:1035400020F020002168C8602068C06820F48070E6
:103550002168C8602068406920F001002168486146
:10356000012084F8390000BF002084F8380000BF33
:103570000320BDE8F081206800683040B04202D1ED
:10358000012001E003E000200028C8D035E02AE057
:10359000681C40B32DB1FDF7C9FAA0EB0800A842A2
:1035A00021D92068C06820F080002168C8602068A8
:1035B000C06820F020002168C8602068C06820F43E
:1035C00080702168C8602068406920F0010021688F
:1035D0004861012084F8390000BF002084F83800D9
:1035E00000BF0320C5E7206800683040B04201D129
:1035F000012000E000200028CAD10020B9E7000027
:1036000010B50248FEF770FE10BD0000040E002049
:1036100000BFFEE72DE9F04104460F46002520E0FB
:10362000A7F1200000EB80001049084410F8058045
:10363000002612E008F001030BB1236900E0E36803
:103640001A46B4F906309919B4F904305819FFF73D
:103650007DF84FEA6808701C46B2082EEADB681C49
:1036600045B2052DDCDBBDE8F081000060450008B7
:1036700008B502460020009090680078ADF802007E
:1036800012E0BDF8000093685B78184480B2ADF892
:103690000000487838B1BDF8000093689B78184462
:1036A00080B2ADF80000491C08780028E9D10098E4
:1036B00008BD000000218180C18084210180A221F9
:1036C000418005498160012101756FF07F41C16032
:1036D00000210161704700007C00002003460029A2
:1036E0000BDBB3F90000884207DB002A05DBB3F9E6
:1036F0000200904201DB012070470020FCE7F0B59A
:1037000004460D46002C25D0E60F501E411900201E
:103710000870491E0EE00A2794FBF7FC07FB1C47C4
:10372000F8B200F130070F70491E5B1E0A2094FBAF
:10373000F0F004B2002CEED1002003E030270F702F
:10374000491E401C9842F9DB16B12D200870491E15
:10375000481CF0BD002002E030212954401C984252
:10376000FADB0020E8542846F3E72DE9FF5F044622
:103770000D4616461F46301B0390781B0290039897
:10378000002801DD039801E0039840428246B442DC
:1037900001DA012001E04FF0FF300190029800288B
:1037A00001DD029801E002984042C0F10008BD42EC
:1037B00001DA012001E04FF0FF3000900AEB080928
:1037C00000BF294620460E9AFEF7C0FF4FEA490B7C
:1037D000C34505DBB44200D10BE0C1440198044469
:1037E000D345EEDCBD4200D103E0D144009805444E
:1037F000E7E700BFBDE8FF9F86B0002013490870CF
:10380000FDF7A2F9FFF738FAFFF70AF8FEF7E6FF2F
:10381000FEF7D4FFFFF78CF8FFF7ACF80C48FFF782
:1038200049FF00F0B1FA1F20FFF7C6F91422094939
:1038300001A8FCF73AFD002101A800F023F8064991
:10384000086000F012F800BFFEE7000079000020D9
:103850007C0E00204C45000870000020014600202E
:10386000842901D0CA1C1044704710B500F0CEFB6B
:10387000002010BD10B500F03BFD012801D000F084
:103880008DFC10BD70B586B004460D46B4F9080035
:10389000FFF7E4FF0646002005AACDE901200096C7
:1038A0000390238A9AB22B46D4E9001000F086FCDC
:1038B000012802D0002006B070BD0598FBE700008B
:1038C00070B5044600BF2046FCF7D0FC85B22A46FE
:1038D00021460348FEF782FE0228F4D070BD0000A6
:1038E000040E00202DE9F04106460F461FB9B00036
:1038F00000F090F900E03846054655B1542000F03C
:1039000089F904460CB1256304E0284600F026FB43
:1039100000E000242046BDE8F081000070B523E0FF
:1039200000F0A4FB1348006808B9012000E0002063
:10393000054600F08BFDBDB900F0D8FA0D48C0680F
:10394000C468201D00F0A2FA0B480068401E0A4916
:1039500008600A480068401E0849086000F0E8FA5C
:10396000204600F00DF800BF044800680028D7D1B9
:1039700070BD00004C0100201C0000201800002039
:1039800010B50446206B00F0E9FA204600F0E6FA94
:1039900010BD000030B54FF44063174800F0070435
:1039A0002CB1C01D20F00700134C041B1B1B02464A
:1039B000124C22600024114D6C60D018083820F0A1
:1039C00007000F4C206000240D4D2D686C600C4DDD
:1039D0002D682C601146441A4C60094C24680C6018
:1039E000084D4C682C60084D4C682C604FF000442A
:1039F000064D2C6030BD00007401002050000020F6
:103A000058000020600000205C00002064000020BE
:103A100000BFFFF783FF034800680128F9D900F0D1
:103A2000E9FAF6E7840000202DE9F04704460F4646
:103A300015469946DDF82080002607E0B95D04F1BF
:103A400034008155B85D00B902E0761C102EF5D324
:103A500000BF002143200155072D00D30625E56254
:103A600065640020A064201D00F031FA04F1180004
:103A700000F02DFA2461C5F10700A0616462002006
:103A8000E06484F85000BDE8F087000010B5002421
:103A900007E004EB84010F4A02EB810000F00AFA10
:103AA000641C072CF5D30C4800F004FA0B4800F016
:103AB00001FA0B4800F0FEF90A4800F0FBF90A4849
:103AC00000F0F8F90448094908600448084908600A
:103AD00010BD0000840000201001002024010020FF
:103AE000380100204C01002060010020100000205F
:103AF0001400002010B50146164800E00068036875
:103B00008B42FBD30246436813448B4204D1436883
:103B10004C682344436001460A464B6813440468DA
:103B2000A34211D10C4C03682468A34208D04B680F
:103B30000468646823444B6003681B680B6005E0FD
:103B4000054B1B680B6001E003680B60884200D0E6
:103B5000016010BD50000020580000200A4909688B
:103B6000096809B9012100E0002121B14FF0FF31BE
:103B7000064A116006E004490968C968C868034A32
:103B80004168116070470000100000203C000020D8
:103B900007480068401C08B9012000E0002018B95F
:103BA000FCF736FB00BFFEE7FCF732FB00BFFEE789
:103BB000440000202DE9F041044688461546256161
:103BC0002079A1684978084446B2A079A1680978AB
:103BD000084447B23A4631462046FFF77FFD68B9B0
:103BE000207D10B90020BDE8F081A068C07838447D
:103BF000E0800020A080A068407846B2A0684146DE
:103C0000426820469047A06880783044A080012018
:103C1000E9E700002DE9F04104464FF0000800F00C
:103C200025FA3C48006808B9FFF7B4FE3A48006836
:103C3000204000285DD19CB1083404F0070078B121
:103C400004F00700C0F10800044404F0070008B9BC
:103C5000012000E0002018B9FCF7DAFA00BFFEE707
:103C6000002C46D02D480068844242D82C4E304665
:103C7000056801E02E462D686868A04202D22868D7
:103C80000028F7D123480068854232D0306800F11F
:103C90000808286830606868001B102812D92F199E
:103CA00007F0070008B9012000E0002018B9FCF770
:103CB000AFFA00BFFEE76868001B78606C603846AA
:103CC000FFF718FF154968680968081A1349086062
:103CD0000846006813490968884203D20F48006803
:103CE000104908600C49686809680843686000204A
:103CF000286000F0ABFB08F0070008B9012000E0E5
:103D0000002018B9FCF784FA00BFFEE74046BDE882
:103D1000F081000058000020640000205C000020BA
:103D20005000002060000020001F4FF080730360EF
:103D3000001F0160001F034B03601438026020382D
:103D400070470000913B00082DE9F04105460C4604
:103D500016461F46DDF81880002E01DB30B2A88021
:103D6000002F01DB38B2E88008E02178424628467F
:103D7000FFF720FF08B9BDE8F081641C2078002817
:103D8000F3D100BFF7E7000010B50022012135484C
:103D9000FCF7C6FE00224FF400413248FCF7C0FE9B
:103DA000012000F061F800224FF400412D48FCF79B
:103DB000B7FE112000F058F800224FF400412948C6
:103DC000FCF7AEFE292000F04FF800224FF400412E
:103DD0002448FCF7A5FE3A2000F046F80122D10362
:103DE0002048FCF79DFE052000F03EF800224FF42D
:103DF00000411C48FCF794FE362000F035F8012203
:103E0000D1031848FCF78CFE002000F02DF80022AA
:103E10004FF400411348FCF783FE3A2000F024F8E9
:103E20000122D1030F48FCF77BFE552000F01CF85F
:103E300000224FF400410B48FCF772FEB12000F065
:103E400013F80122D1030748FCF76AFE002000F0B6
:103E50000BF80122D1030348FCF762FE1B2000F09F
:103E600003F810BD0008014001B582B000BF4FF05B
:103E7000FF30012301AA02A900900348FDF702FFC9
:103E80000228F4D00EBD0000740D002001460A691E
:103E9000D1E901309860D1E9010358605068884247
:103EA00001D188685060002008611068401E1060D1
:103EB0001068704700F1080141604FF0FF318160E8
:103EC00000F10801C160016100210160704700211B
:103ED0000161704742684A6093688B6093685960DB
:103EE0009160086103685B1C0360704710B5FCF7C4
:103EF0008FF90D480068401C0B490860BFF34F8FD5
:103F0000BFF36F8F0846006801280BD1074800688F
:103F1000C0B208B9012000E0002018B9FCF778F918
:103F200000BFFEE710BD00004400002004ED00E0EB
:103F300010B50948006818B9FCF76AF900BFFEE738
:103F400005480068401E044908600846006810B92A
:103F50000020FCF764F910BD4400002070B506464F
:103F60003546002E31D0083D2C4618496068096856
:103F7000084008B1012000E0002018B9FCF748F91A
:103F800000BFFEE7206808B9012000E0002018B952
:103F9000FCF73EF900BFFEE70C496068096808407D
:103FA00098B1206888B909496068096888436060E9
:103FB00000F05CF806496068096808440449086034
:103FC0002046FFF797FD00F041FA70BD6400002025
:103FD0005C000020064800684FF47A71B0FBF1F0F5
:103FE000401E4FF0E0214861072008617047000043
:103FF000000000204FF0805003490860BFF34F8F4E
:10400000BFF36F8F7047000004ED00E01FB5002084
:10401000009001900290034680220EA103900F4869
:1040200000F0CCF80446012C0DD1FCF7F1F8A01EED
:104030000B49086001200B49086000200A4908600C
:1040400000F05CF804E01CB9FCF7E2F800BFFEE702
:104050001FBD000049444C4500000000113A000813
:104060003C000020280000202000002002480068BA
:10407000401C0149086070474000002010B51A48F4
:10408000006818B10120194908602BE00020174989
:10409000086017480068B0FA80F0C0F11F0404EB14
:1040A0008400144951F8200008B1012000E00020EC
:1040B00018B9FCF7ADF800BFFEE704EB84010D4A28
:1040C00002EB810041684968416000F108014268E3
:1040D0008A4202D14168496841604168C968064A1C
:1040E000116000BF10BD0000400000203000002023
:1040F00024000020840000200C0000201CB5224871
:10410000014609780191FF210246117001460978A4
:1041100000919DF8001001F050011C4A1170072118
:104120001B4A116009E01A490968491E184A1160C2
:104130009DF800104906090E00919DF8001001F04D
:1041400080018029EFD0124909680902104A1160E4
:104150001146098801F4E06111600B4A0199117060
:104160000C48006840F470000A490860084600687E
:1041700040F070400860FFF72DFF002006490860FE
:10418000FCF714F800201CBD00E400E0480000200B
:104190004C00002020ED00E04400002010B5FCF7AA
:1041A00037F800F0B5F818B14FF0805002490860B8
:1041B0000020FCF734F810BD04ED00E02DE9FF4FBE
:1041C00081B0804616469A46DDE90E5BB8F1000FD5
:1041D00003D1FCF71DF800BFFEE7072D01D2012037
:1041E00000E0002018B9FCF713F800BFFEE73046E6
:1041F0001099FFF777FB0446002C5AD0701E216BF4
:1042000001EB800929F0070909F0070008B901202E
:1042100000E0002018B9FBF7FBFF00BFFEE70096A7
:104220002A462046119B0299FFF7FEFB5246414663
:104230004846FFF779FD2060BBF1000F01D0CBF8B5
:104240000040FFF753FE24480068401C22490860E4
:104250002248006840B921480460084600680128E7
:104260000CD1FFF713FC09E01D48006830B91B486A
:104270000068C06AA84201D818480460194800685C
:10428000401C1849086094F82C10012088401649F9
:104290000968084314490860E16A01EB8101134A87
:1042A00002EB8100211DFFF715FE0127FFF740FEFD
:1042B00001E04FF0FF37012F09D10948006830B104
:1042C00006480068C06AA84201D2FFF793FE38464C
:1042D00005B0BDE8F08F00001C0000200C0000209D
:1042E0002800002038000020240000208400002046
:1042F0000549096809B9012005E00449096809B9B7
:10430000022000E00020704728000020400000202C
:104310002DE9F0414FF0000841480068002872D1B3
:1043200040480068401C3F49086008460668DEB9FE
:104330003D480068006808B9012000E0002018B975
:10434000FBF766FF00BFFEE737480768374800689D
:10435000354908603548076035480068401C3449D5
:104360000860FFF7FBFB00BF3248006886423CD381
:1043700000BF2D480068006808B9012000E0002057
:1043800020B14FF0FF302B4908602DE0264800682F
:10439000C068C4686568AE4202D22648056023E062
:1043A000201DFFF773FDA06A18B104F11800FFF794
:1043B0006DFD94F82C10012088401F4909680843BE
:1043C0001D490860E16A01EB81011C4A02EB810092
:1043D000211DFFF77FFD1A49E06A0968C96A884212
:1043E000C7D34FF00108C4E700BF15480068C06A92
:1043F00000EB8000114951F82000012808D94FF046
:10440000010805E0FFE70F480068401C0D490860FF
:104410000D48006808B14FF001084046BDE8F08142
:104420004000002020000020100000201400002088
:10443000340000203C0000202400002084000020E4
:104440000C0000202C0000203000002070B500255A
:104450003048006818B9FBF7DBFE00BFFEE7FFF746
:1044600045FD2C480068401E2A490860084600683F
:1044700000284BD128480068002847D024E027486E
:10448000C068C46804F11800FFF700FD201DFFF7A5
:10449000FDFC94F82C10012088402149096808434C
:1044A0001F490860E16A01EB81011E4A02EB8100AD
:1044B000211DFFF70FFD1C49E06A0968C96A88429F
:1044C00002D30120194908601448006808B9012086
:1044D00000E000200028D2D01548006878B10AE03A
:1044E000FFF716FF10B1012010490860104800685E
:1044F000401E0F4908600E4800680028F0D10B48A4
:104500000068012802D10125FFF774FDFFF710FDB7
:10451000284670BD400000201C000020380100200B
:1045200024000020840000200C0000203000002027
:104530002C00002000000000000000000102030425
:1045400006070809000000000102030440470008B4
:10455000B12D00080000000000000000C8000000AD
:10456000000000000000005F0000000700070014CA
:104570007F147F14242A7F2A122313086462364989
:104580005522500005030000001C2241000041227A
:104590001C0014083E081408083E080800503000AB
:1045A00000080808080800606000002010080402E5
:1045B0003E5149453E00427F4000426151494621FB
:1045C00041454B311814127F1027454545393C4A67
:1045D00049493001710905033649494936064949B7
:1045E000291E00363600000056360000081422410D
:1045F0000014141414140041221408020151090675
:10460000324979413E7E1111117E7F494949363E3A
:10461000414141227F4141221C7F494949417F0953
:104620000909013E4149497A7F0808087F00417F16
:1046300041002040413F017F081422417F4040401B
:10464000407F020C027F7F0408107F3E4141413EC3
:104650007F090909063E4151215E7F091929464615
:104660004949493101017F01013F4040403F1F203E
:1046700040201F3F4038403F631408146307087010
:1046800008076151494543007F4141000204081079
:10469000200041417F0004020102044040404040AC
:1046A000000102040020545454787F4844443838B0
:1046B00044444420384444487F3854545418087EB5
:1046C0000901020C5252523E7F0804047800447DD6
:1046D00040002040443D007F1028440000417F40BE
:1046E000007C041804787C08040478384444443876
:1046F0007C14141408081414187C7C08040408485A
:1047000054545420043F4440203C4040207C1C2012
:1047100040201C3C4030403C44281028440C505061
:10472000503C4464544C44000836410000007F0073
:104730000000413608001008081008784641467805
:10474000436C6F636B5072696E7465720000000099
:1047500070470008000000208400000028010008C5
:10476000F447000884000020AC1400004401000855
:1047700000A24A0400000000000000000000000049
:104780000000000000000000000000000000000029
:104790000000000000000000000000000000000019
:1047A0000000000000000000000000000000000009
:1047B00000000000AAAAAAAA000000000000000051
:1047C00000000000000000000000000000000000E9
:1047D00000000000000000000000000000000000D9
:1047E00000000000000000000000000008050102B9
:0447F0001536000872
:04000005080000ED02
:00000001FF
